:020000040800F2
:1000000000170020FD0D0008210500082305000849
:10001000270500082B0500082F0500080000000038
:100020000000000000000000000000003305000890
:1000300035050008000000003705000839050008F4
:10004000170E0008170E0008170E0008170E0008FC
:10005000170E0008170E0008170E0008170E0008EC
:10006000170E0008170E0008170E0008170E0008DC
:10007000170E0008170E0008170E0008170E0008CC
:10008000170E0008170E0008170E0008170E0008BC
:10009000170E0008170E0008170E0008170E0008AC
:1000A000170E0008170E0008170E0008170E00089C
:1000B000170E0008BF080008170E0008170E0008EA
:1000C000170E0008170E0008170E0008170E00087C
:1000D000170E0008710D0008DD080008170E000853
:1000E000170E0008170E0008170E0008170E00085C
:1000F000170E0008170E0008170E0008170E00084C
:10010000170E0008170E0008170E0008170E00083B
:10011000170E0008170E0008170E0008170E00082B
:10012000170E0008170E0008170E0008170E00081B
:1001300000F002F800F04BF80AA090E8000C8244AE
:100140008344AAF10107DA4501D100F040F8AFF28B
:10015000090EBAE80F0013F0010F18BFFB1A43F0A5
:1001600001031847A0580000C0580000103A24BFEF
:1001700078C878C1FAD8520724BF30C830C144BF0C
:1001800004680C607047000000230024002500264E
:10019000103A28BF78C1FBD8520728BF30C148BFEA
:1001A0000B607047642904F02586782904F05E8688
:1001B000002070471FB505F0A5F8040000200021BD
:1001C00005F03AF9401C60601FBD10B510BD05F088
:1001D000BDF81146FFF7EEFF00F09BF805F0DBF8E5
:1001E00003B4FFF7F2FF03BC00F068FD10B541F661
:1001F0001F41092000F036FB4FF4165000F0D2FBEF
:100200003C217A4804F0BCFF03F047FD10BD10B557
:1002100077480078002870D076480078142855D1A7
:100220000020744908707449744800F090FC7348C9
:1002300000786E49C1F832006F480078C1F8360086
:100240006E48007832281ADB6D480078401C6C49F3
:10025000087008460078062809DB00200870012095
:10026000624981F83A0067A004F090FD0BE05F4816
:1002700090F83A0038B967A004F088FD03E0002048
:100280005A4981F83A005C48007846281ADB6748EA
:100290000078401C6549087008460078062809DB8C
:1002A000002008700120514981F83B0060A004F053
:1002B0006DFD0BE04D4890F83B0038B964A004F0A8
:1002C00065FD03E00020494981F83B004949087871
:1002D00000EBD0714910A0EB410139B163480068CF
:1002E00008B9012000E0002060490860414800781A
:1002F000401C404908700BE0FFE74148007810B906
:100300004A48007820B100203D49087047490870EC
:1003100010BD002600F068FC4FF4A06000F08EFDD8
:100320004FF4E13000F0D8FC00F01EFA00F0F6F9CE
:10033000FFF75CFF09E01E2E03D14DA004F026FD5F
:100340000026322000F08DFC761C00F02CFC0028EA
:10035000F1D14DA004F01AFD51A004F017FD44E0C6
:10036000FFF755FF214803F060FE002000F016FA69
:100370000446022C05D154A004F008FD022003F02D
:10038000A3FC042C08D158A004F000FD002003F0C9
:100390009BFC002016490870012C1BD114480078E2
:1003A000C0B158480078A8B9322257490F4804F024
:1003B00070FE56A004F0EAFC002506E05248415DBC
:1003C00055A004F0E3FC681CC5B2322DF6D310A092
:1003D00004F0DCFC2548006808B9012000E000209A
:1003E00022490860C82000F03CFCB9E782010020E7
:1003F00000000020340000203600002035000020DE
:1004000037000020CEC2B6C8D2ECB3A3A3A1A3A1EB
:100410000D0A0000CEC2B6C8C5BCC8BBD2ECB3A39F
:10042000A3ACC7EBD7A2D2E20D0A0000380000202F
:10043000CAAAB6C8B3ACB9FDC9CFCFDED6B5A3AC96
:10044000D2ECB3A3B1A8BEAFA3A1A3A10D0A000033
:10045000CAAAB6C8C5BCC8BBD2ECB3A3A3ACC7EB91
:10046000D7A2D2E221210D0A00000000948121428E
:100470002D2D6468743131B3F5CABCBBAFCAA7B0C7
:10048000DC2D2D0D0A0000002D2D6468743131B370
:10049000F5CABCBBAFB3C9B9A62D2D0D0A0000002B
:1004A0004B4559313A4169724C696E6B20C1ACBD04
:1004B000D3C4A3CABD09204B45595F55503AB8B4BF
:1004C000CEBB0D0A0D0A00005749464920BDF8C8A9
:1004D000EB204169724C696E6B20C1ACBDD3C4A3E3
:1004E000CABD0D0A000000005749464920B8B4CEE5
:1004F000BBA3ACC7EBD6D8D0C2C5E4D6C3C1ACBD94
:10050000D30D0A00330000200100002073656E64E3
:1005100020646174613A0000252D347800000000E9
:10052000704700BFFEE700BFFEE700BFFEE700BF69
:10053000FEE7704770477047704700000CB5002019
:10054000019000906C48006840F480306A4908606F
:1005500000BF6948006800F4003000900198401C1A
:100560000190009818B90198B0F5A06FF1D16248D8
:10057000006800F4003010B10120009001E000207C
:1005800000900098012843D15C48006840F01000BA
:100590005A4908600846006820F0030008600846D1
:1005A000006840F0020008605348406852494860C3
:1005B0000846406848600846406840F480604860EB
:1005C0000846406820F47C1048600846406840F4C3
:1005D000E81048600846006840F08070086000BF7E
:1005E0004548006800F000700028F9D04248406893
:1005F00020F00300404948600846406840F002008F
:10060000486000BF3C48406800F00C000828F9D161
:100610000CBD10B5FFF792FF10BD10B5364800684D
:1006200040F00100344908600846406834490840F9
:100630003149486008460068324908402E49086040
:100640000846006820F4802008600846406820F4CE
:10065000FE0048604FF41F008860FFF7DAFF4FF09C
:1006600000602949086010BD10B50021002000225B
:10067000214B5B6803F00C0121B1042906D0082945
:1006800028D107E0214B224C236027E01F4B204C50
:10069000236023E0184B5B6803F47010164B5B6813
:1006A00003F48032022303EB904022B9194B4343F9
:1006B000174C23600DE0104B5B6803F4003323B14B
:1006C000144B4343124C236003E0104B4343104C44
:1006D000236003E00D4B0E4C236000BF00BF064BB0
:1006E0005B68C3F303130C4CE15C094B1B68CB4004
:1006F000074C236010BD00000010024000200240A3
:100700000000FFF8FFFFF6FE08ED00E000127A009F
:100710003C00002000093D004000002008B50121F8
:10072000482000F015FF2020ADF8000010208DF8C3
:10073000030003208DF802006946094800F04CFCD4
:100740002021074800F0F5FC2020ADF800006946A4
:10075000044800F041FC2021024800F0EAFC08BDFA
:10076000000C01400018014008B50121442000F0B0
:10077000EFFE1C20ADF8000048208DF8030069460C
:10078000354800F029FC0120ADF8000028208DF844
:1007900003006946314800F01FFC08BD10B504464F
:1007A00014B101202E4908702D480078002837D058
:1007B0001021294800F0A3FC78B10821264800F058
:1007C0009EFC50B10421244800F099FC28B101217D
:1007D000224800F094FC012822D10A2000F041FABE
:1007E00000201F49087010211B4800F088FC08B940
:1007F000012010BD0821184800F081FC08B9022032
:10080000F7E70421144800F07AFC08B90320F0E768
:100810000121124800F073FC01281BD10420E8E7F5
:1008200010210D4800F06BFC012813D108210A4863
:1008300000F065FC01280DD10421074800F05FFCA1
:10084000012807D10121054800F059FC10B9012009
:10085000034908700020CCE700180140000801405F
:10086000500000207FB505460C460121022000F013
:100870007CFEADF80850ADF804400020ADF80A0049
:10088000ADF8060001A9144800F09AFF01221146B4
:10089000114801F00CFB1D208DF8000000208DF8A0
:1008A000010003208DF8020001208DF80300684646
:1008B00000F0C9FA0121084801F0DEFA7FBD10B549
:1008C0000121054801F0A1FD28B10121024801F0F4
:1008D000ADFD02F027F810BD0004004008B540F25D
:1008E0002551574801F066FF40B1554801F0E2FE3E
:1008F000C0B200900121684602F0BEF808BD10B5F4
:1009000086B004460121082000F022FE012188045F
:1009100000F02BFE4B4801F08DFD4FF48060ADF8E8
:10092000100003208DF8120018208DF8130004A980
:10093000454800F051FB4FF40060ADF81000042072
:100940008DF8130004A9404800F046FB00940020F5
:10095000ADF80400ADF80600ADF80800ADF80C00E5
:100960000C20ADF80A006946364801F0A6FD0121C9
:10097000344801F02EFE012240F22551314801F0A9
:1009800034FE27208DF8140002208DF81500032076
:100990008DF8160001208DF8170005A800F053FA15
:1009A00006B010BD10B586B004460121480400F021
:1009B000DCFD0121042000F0CBFD0420ADF8140083
:1009C00003208DF8160018208DF8170005A91F4880
:1009D00000F002FB0820ADF8140004208DF8170089
:1009E00005A91A4800F0F8FA26208DF80000032027
:1009F0008DF8010001208DF802008DF80300684693
:100A000000F021FA01940020ADF80800ADF80A00CA
:100A1000ADF80C00ADF810000C20ADF80E0001A9E7
:100A2000074801F04AFD012240F22551044801F037
:100A3000DCFD0121024801F0CCFD06B010BD000034
:100A40000044004000480040000C01400008014004
:100A500010B56248006820F0F00060490860084660
:100A6000006840F03000086000205D4908601420F4
:100A700000F0F7F801205B49C1F884011E2000F066
:100A8000CCF810BD10B500245448006820F0F000E8
:100A9000524908600846006840F08000086004E0A1
:100AA000601CC4B2012000F0B8F84D4880380068DE
:100AB00008B1642CF4DB642C01DB012010BD0024A0
:100AC00004E0601CC4B2012000F0A7F8444880385C
:100AD000006808B9642CF4DB642C01DB0120EDE72D
:100AE0000020EBE710B5002404E0601CC4B2012034
:100AF00000F093F83A488038006808B1642CF4DBC1
:100B0000002404E0601CC4B2012000F086F83448E0
:100B10008038006808B9642CF4DB282000F07DF8E8
:100B20002F488038006808B1012010BD0020FCE784
:100B300070B50024002506E06006040EFFF7D2FF22
:100B40000443681CC5B2082DF6DB204670BD7CB599
:100B500005460E46FFF77CFFFFF794FFF8B9002427
:100B600005E0FFF7E5FF0DF80400601CC4B2052C9A
:100B7000F7DB9DF800009DF8011008449DF8021075
:100B800008449DF8031008449DF80410884208D1D9
:100B90009DF8000030709DF80200287001E00120EF
:100BA0007CBD0020FCE708B50121042000F0D0FC4A
:100BB0000220ADF8000010208DF8030003208DF80E
:100BC00002006946054800F007FA0221034800F0D8
:100BD000B0FAFFF73DFFFFF755FF08BD00080140E1
:100BE000840121420000214210B56FF0040000F0A2
:100BF00074F92E4800682E49B0FBF1F02D490870B9
:100C00000846007800EB4001C1EBC0104FF6FF71C1
:100C100001EAC0002849088010BD0146254A127823
:100C20004A434FF0E0235A6100229A611A46126942
:100C300042F001021A6100BF4FF0E022106900F09B
:100C400001021AB100F48032002AF5D04FF0E02200
:100C5000126922F001024FF0E0231A6100229A612A
:100C600070470146144A12884A434FF0E0235A6104
:100C700000229A611A46126942F001021A6100BF0D
:100C80004FF0E022106900F001021AB100F4803246
:100C9000002AF5D04FF0E022126922F001024FF055
:100CA000E0231A6100229A61704700003C00002096
:100CB00000127A00520000205400002000BF70474C
:100CC00000BF4A4A128802F04002002AF9D0C2B29C
:100CD000464B1B1D1A80704710B586B00446012193
:100CE00044F2040000F034FC4FF40070ADF814003E
:100CF00003208DF8160018208DF8170005A93C4830
:100D000000F06AF94FF48060ADF8140004208DF80B
:100D1000170005A9364800F05FF925208DF800007E
:100D200003208DF801008DF8020001208DF80300EA
:100D3000684600F088F801940020ADF80800ADF88E
:100D40000A00ADF80C00ADF810000C20ADF80E0054
:100D500001A9264801F0B1FB012240F225512348A8
:100D600001F043FC0121214801F033FC06B010BD25
:100D700010B540F225511D4801F01CFD10B31B4871
:100D800001F098FCC4B21B48008800F40040C8B9C8
:100D90001848008800F4804060B10A2C03D000207D
:100DA0001449088020E01348008840F400401149AD
:100DB000088019E00D2C06D10E48008840F48040D0
:100DC0000C49088010E00B480088C0F30D000A4968
:100DD0000C5408480088401C0649088008460088D2
:100DE000C72801DD0020088010BD00000038014048
:100DF000000801405C000020BA000020094880473C
:100E000009480047FEE7FEE7FEE7FEE7FEE7FEE7EC
:100E1000FEE7FEE7FEE7FEE704480549054A064B04
:100E2000704700001B060008310100080005002083
:100E3000001700200007002000070020314901436F
:100E4000314A1160704770B5002100230F22C47829
:100E500004B32D4C246804F4E064C4F5E064210A72
:100E6000C1F10403CA40447804FA03F184781440C1
:100E700021430901254C0678A155047804F01F058B
:100E80000124AC4005786D11AD0005F1E025C5F8F1
:100E9000004109E0047804F01F050124AC401C4D1A
:100EA0000678761145F8264070BD1A4A0A4002437A
:100EB000154B1B1F1A60704739B1134A121D126877
:100EC0000243114B1B1D1A6006E00F4A121D1268E7
:100ED00082430D4B1B1D1A607047042808D14FF048
:100EE000E021096941F004014FF0E022116107E0BF
:100EF0004FF0E021096921F004014FF0E022116177
:100F0000704700000000FA050CED00E000E400E08E
:100F100080E100E080FFFF1F10B50446CC4884420A
:100F200008D10121042000F02DFB0021042000F055
:100F300029FB46E0C748844208D10121082000F07F
:100F400021FB0021082000F01DFB3AE0C24884424A
:100F500008D10121102000F015FB0021102000F025
:100F600011FB2EE0BD48844208D10121202000F071
:100F700009FB0021202000F005FB22E0B848844254
:100F800008D10121402000F0FDFA0021402000F0AE
:100F9000F9FA16E0B348844208D10121802000F01C
:100FA000F1FA0021802000F0EDFA0AE0AE48844218
:100FB00007D10121801500F0E5FA0021A01500F00D
:100FC000E1FA10BD10B50121084600F0DBFA00215E
:100FD000012000F0D7FA10BD2DE9F04102460025AE
:100FE0000026002000230024002791F803C00CF005
:100FF0000F0591F803C00CF0100CBCF1000F03D0EA
:1010000091F802C04CEA050591F800C0BCF1000F50
:1010100031D0146800202BE04FF0010C0CFA00F3E3
:10102000B1F800C00CEA03069E4220D183004FF0C5
:101030000F0C0CFA03F7BC4305FA03FC4CEA04045A
:1010400091F803C0BCF1280F06D14FF0010C0CFA47
:1010500000FCC2F814C00AE091F803C0BCF1480FCC
:1010600005D14FF0010C0CFA00FCC2F810C0401C76
:101070000828D1D31460B1F800C0BCF1FF0F34DDF3
:10108000546800202EE000F1080C4FF0010808FA27
:101090000CF3B1F800C00CEA03069E4221D1830094
:1010A0004FF00F0C0CFA03F7BC4305FA03FC4CEAB3
:1010B000040491F803C0BCF1280F05D100F1080C1D
:1010C00008FA0CF8C2F8148091F803C0BCF1480F7C
:1010D00007D100F1080C4FF0010808FA0CF8C2F82B
:1010E0001080401C0828CED35460BDE8F0814FF634
:1010F000FF710180022181700421C1707047024696
:10110000002093680B400BB1012000E000207047E5
:101110000146886880B2704702460020D3680B40C1
:101120000BB1012000E0002070470146C86880B282
:10113000704701617047416170470AB1016100E089
:1011400041617047C16070474FF480320A43826149
:101150008161826182698269704702460020434B47
:1011600018684FF68073184040EA021008433F4B5E
:10117000186070473E49C8617047F0B50A460023C1
:1011800000240021002500F00046B6F1004F02D1F6
:10119000364EF16901E0354E7168C0F3034583B204
:1011A00000F44016B6F5401F08D121F070612F4EB3
:1011B000766826F070662D4F7E6012E000F480168F
:1011C000B6F5801F06D1032606FA05F4A14341F0C7
:1011D000706106E0460D360103FA06F6B14341F0B0
:1011E000706122B1460D360103FA06F6314300F074
:1011F0000046B6F1004F02D11C4EF16101E01B4EDA
:101200007160F0BD30B500228B071C0F0F2303FA6D
:1012100004F2164B08338C1053F824309343134CCC
:1012200008348D1044F8253023468C1053F82430B0
:101230008C07240F00FA04F423430C4C08348D105F
:1012400044F8253030BD0A49DC31086070470000A1
:1012500000080140000C0140001001400014014052
:1012600000180140001C0140002001400000014026
:1012700000002042DF48006840F00100DD490860BE
:1012800008464068DC490840DA494860084600687A
:10129000DA490840D74908600846006820F48020F1
:1012A00008600846406820F4FE0048604FF41F00C4
:1012B00088607047CF49096821F48031CD4A1160B8
:1012C0001146096821F480211160B0F5803F03D0F8
:1012D000B0F5802F0ED106E0C649096841F480318F
:1012E000C44A116007E0C349096841F4A021C14A1A
:1012F000116000E000BF00BF704710B5014600223A
:10130000002300204A11012A02D1BA4C236806E0CA
:10131000022A02D1B74C236A01E0B64C636A01F09D
:101320001F02012494401C400CB1012000E0002069
:1013300010BD38B5002000900024002500BF3120EA
:10134000FFF7DBFF05460098401C00900098B0F5C1
:10135000A06F01D0002DF2D03120FFF7CEFF08B1F1
:10136000012400E00024204638BD01460020A14AA7
:10137000106820F0F80040EAC10010607047A049F2
:1013800008607047024600209A4B586820F47C1091
:1013900042EA01031843974B586070479849086622
:1013A000704701460020934A506820F0030008432C
:1013B000506070478F48406800F00C00704701464D
:1013C00000208C4A506820F0F000084350607047BD
:1013D00001460020874A506820F4E06008435060CE
:1013E000704701460020834A506820F4605040EA6C
:1013F000C1005060704729B17E4A527A02437D4B4A
:101400005A7204E07B4A527A82437A4B5A7270478E
:101410007B49D8310860704701460020754A506802
:1014200020F440400843506070470021714A203248
:101430001170704A82F82010012802D004280AD1C5
:1014400004E001216B4A2032117005E00521694A50
:101450002032117000E000BF00BF7047694908608A
:1014600070476449096A0143624A116270476549DD
:1014700044390860704730B5002100220024002361
:101480005C4D6D6805F00C0121B1042905D00829D7
:1014900023D105E05C4D056022E05B4D05601FE057
:1014A000544D6D6805F47012524D6D6805F480342A
:1014B000022505EB92421CB9544D554305600BE0E3
:1014C0004C4D6D6805F400351DB1504D5543056018
:1014D00002E04D4D5543056002E04B4D056000BFF5
:1014E00000BF444D6D6805F0F0010909484D6B5C83
:1014F0000568DD4045603F4D6D6805F4E061090A0F
:10150000434D6B5C4568DD4085603A4D6D6805F480
:101510006051C90A3E4D6B5C4568DD40C560354D84
:101520006D6805F44041890B3A4D6B5CC568B5FBAD
:10153000F3F5056130BD29B12E4A526902432D4BA6
:101540005A6104E02B4A526982432A4B5A61704720
:1015500029B1284A92690243264B9A6104E0254A40
:1015600092698243234B9A61704729B1214AD2691B
:101570000243204BDA6104E01E4AD26982431D4BCC
:10158000DA61704729B11B4AD2680243194BDA600D
:1015900004E0184AD2688243164BDA60704729B1DA
:1015A000144A12690243134B1A6104E0114A12698A
:1015B0008243104B1A6170471249403908607047E6
:1015C0000F49C86470470B49C87170470948406AA1
:1015D00040F0807007494862704701460020054A84
:1015E00092680A400AB1012000E0002070470149DA
:1015F00088727047001002400000FFF8FFFFF6FEFF
:10160000000042428004424200127A0000093D007C
:101610005E0000206E00002010B50446FE488442A3
:1016200008D10121C014FFF7ADFF0021E014FFF73E
:10163000A9FFC4E0B4F1804F08D101210846FFF7AB
:10164000AEFF00210120FFF7AAFFB8E0F348844273
:1016500008D101210220FFF7A2FF00210220FFF79D
:101660009EFFACE0EE48844208D101210420FFF740
:1016700096FF00210420FFF792FFA0E0E948844292
:1016800008D101210820FFF78AFF00210820FFF779
:1016900086FF94E0E448844208D101211020FFF73E
:1016A0007EFF00211020FFF77AFF88E0DF488442A8
:1016B00008D101212020FFF772FF00212020FFF731
:1016C0006EFF7CE0DA48844208D101214014FFF724
:1016D00059FF00216014FFF755FF70E0D5488442A0
:1016E00009D10121C804FFF74DFF00214FF400206C
:1016F000FFF748FF63E0D048844209D10121080583
:10170000FFF740FF00214FF48010FFF73BFF56E04A
:10171000CA48844209D101214805FFF733FF00215F
:101720004FF40010FFF72EFF49E0C548844208D16E
:1017300001214020FFF733FF00214020FFF72FFF5A
:101740003DE0C048844208D101218020FFF727FFF7
:1017500000218020FFF723FF31E0BB48844208D1FD
:1017600001218015FFF71BFF0021A015FFF717FFD0
:1017700025E0B648844209D101210804FFF702FFA1
:1017800000214FF48030FFF7FDFE18E0B04884429E
:1017900009D101214804FFF7F5FE00214FF4003084
:1017A000FFF7F0FE0BE0AB48844208D1012188042A
:1017B000FFF7E8FE00214FF48020FFF7E3FE10BDA5
:1017C00000220288944B98420ED0994B98420BD03D
:1017D000B0F1804F08D0914B984205D0904B984281
:1017E00002D0904B984204D14FF68F731A404B8829
:1017F0001A438D4B984207D08C4B984204D04FF639
:10180000FF431A40CB881A4302808B8883850B885C
:101810000385814B98420BD0854B984208D08B4B67
:10182000984205D08A4B984202D08A4B984201D107
:101830000B7A038601238382704770B5002400224F
:101840000023058C4FF6FE7635400584028C838894
:10185000048B4FF68F752C40B51E2C400D882C4301
:10186000751E2A400D892A434D882A436A4DA84295
:101870000BD06F4DA84208D0744DA84205D0744DCE
:10188000A84202D0734DA84213D14FF6F7752A40F3
:101890004D892A434FF6FB752A408D882A434FF61F
:1018A000FF652B404FF6FF552B408D892B43CD898B
:1018B0002B4383800483CD888586028470BD70B5F8
:1018C000002400220023058C4FF6EF763540058476
:1018D000028C8388048B48F6FF752C404FF6FF4539
:1018E0002C400D884FF6FF7606EA05252C434FF66F
:1018F000DF752A400D8906EA05152A434D8806EA58
:1019000005152A43444DA84202D0494DA8421DD195
:101910004FF67F752A404D894FF6FF7606EA05158A
:101920002A434FF6BF752A408D8806EA05152A43DB
:101930004FF6FF352B404FF2FF752B408D8906EA9D
:1019400085052B43CD8906EA85052B4383800483D7
:10195000CD880587028470BD70B500240022002365
:10196000058C4FF6FF6635400584028C8388848B96
:101970004FF68F752C404FF6FC752C400D882C438C
:101980004FF6FF552A400D894FF6FF7606EA0525EA
:101990002A434D8806EA05252A431F4DA84202D056
:1019A000234DA8421DD14FF2FF752A404D894FF6B5
:1019B000FF7606EA05252A434FF6FF352A408D8833
:1019C00006EA05252A434EF6FF752B404DF6FF75B6
:1019D0002B408D8906EA05152B43CD8906EA0515AE
:1019E0002B4383808483CD888587028470BD70B546
:1019F000002200230024058C4EF6FF763540058436
:101A0000038C8488828B48F6FF752A404FF6FF4589
:101A10002A400D8820E00000002C01400004004016
:101A200000080040000C004000100040001400407E
:101A300000340140004C014000500140005401407E
:101A400000180040001C0040002000400040014001
:101A500000440140004801404FF6FF7606EA0525A4
:101A60002A434DF6FF752B400D8906EA05352B43B9
:101A70004D8806EA05352B43FA4DA84202D0FA4DAF
:101A8000A84208D14BF6FF752C408D894FF6FF76A2
:101A900006EA85152C4384808283CD88A0F84050C7
:101AA000038470BD828B4FF2FF331A408283828B96
:101AB0004FF6FF7303EA01231A4382837047F0B5A0
:101AC0000C461546002200210026078C4EF6FF7CAE
:101AD00007EA0C070784828B018C4FF6FF7707EA31
:101AE000043640F6FF473A404FF6FF7707EA0527EE
:101AF0003A434FF6FF7707EA03373A43D94FB842E4
:101B00000ED0D94FB8420BD0B0F1804F08D0D74F8C
:101B1000B84205D0D64FB84202D0D64FB84206D10F
:101B20004DF6FF77394046F48057394305E047F6D4
:101B3000FF57394044F48057394382830184F0BD14
:101B4000828B4FF6F3731A408283828B0A4382831F
:101B50007047F0B50C461546002200210026078C80
:101B60004FF6FF6C07EA0C070784828B018C4FF657
:101B7000FF7707EA04264FF60C773A404FF6FF77D7
:101B800007EA03172F433A43B64FB8420ED0B64F79
:101B9000B8420BD0B0F1804F08D0B44FB84205D056
:101BA000B34FB84202D0B34FB84206D14FF6FF57F9
:101BB000394046F48077394305E04FF2FF5739400A
:101BC00044F48077394382830184F0BD028B4FF265
:101BD000FF331A400283028B4FF6FF7303EA01239F
:101BE0001A4302837047F0B50C46154600220021C7
:101BF0000026078C4FF6EF7C07EA0C070784028B60
:101C0000018C4FF6FF7707EA041640F6FF473A408B
:101C10004FF6FF7707EA03373A434FF6FF7707EAB5
:101C200005273A438F4FB8420ED08F4FB8420BD0A2
:101C3000B0F1804F08D08D4FB84205D08C4FB842DC
:101C400002D08C4FB84206D14FF6DF77394046F0CC
:101C50001007394305E04FF65F77394044F010072D
:101C6000394302830184F0BD028B4FF6F3731A40AF
:101C70000283028B0A4302837047F0B50C46154677
:101C800000220021068C4FF6FE773E400684028B30
:101C9000018C4FF60C7632407E1C06EA03162E436A
:101CA0003243704EB0420ED06F4EB0420BD0B0F106
:101CB000804F08D06D4EB04205D06D4EB04202D07C
:101CC0006C4EB04206D14FF6FD76314044F001062D
:101CD000314305E04FF6F576314044F001063143DB
:101CE00002830184F0BD70B505460C465D4885420F
:101CF0000ED05D4885420BD0B5F1804F08D05B48CF
:101D0000854205D05A48854202D05A48854200D1C2
:101D100000E000BF208850B92389A2886188284646
:101D2000FFF7ABFFE1882846FFF79EFF25E02088FC
:101D300004280AD12389A28861882846FFF753FF27
:101D4000E1882846FFF742FF17E0208808280AD1DB
:101D50002389A28861882846FFF7FBFEE188284690
:101D6000FFF7EEFE09E02389A28861882846FFF785
:101D7000A6FEE1882846FFF795FE70BD2DE9F041EB
:101D800005460C4600260127608808B9022600E0B7
:101D90000026A088012801D1022700E00127208821
:101DA000A0B92389A28861882846FFF766FFE188E9
:101DB0002846FFF759FF23893A4631462846FFF760
:101DC00012FFE1882846FFF701FF13E02389A2886C
:101DD00061882846FFF707FFE1882846FFF7F6FEEF
:101DE00023893A4631462846FFF747FFE1882846CF
:101DF000FFF73AFFBDE8F0810A884B881A438B88C9
:101E00001A43CB881A430B891A434B891A438B898F
:101E10001A43A0F8442070474FF6FF7181800021DB
:101E20000180C180418001727047002101804180A2
:101E30008180C180018141818181C1817047002100
:101E400001804180012181800021C1800181704792
:101E50000021018041808180C18001814181818197
:101E600070470000002C0140003401400004004095
:101E700000080040000C004021B1028842F001023D
:101E8000028004E002884FF6FE731A400280704719
:101E900031B1B0F8442042F40042A0F8442005E0FB
:101EA000B0F84420C2F30E02A0F8442070471AB1E3
:101EB00083890B43838102E083898B43838170474D
:101EC0008182704741EA0203A0F8483070471AB196
:101ED00083890B43838102E083898B43838170472D
:101EE00001894FF6F8721140018170470A460021BE
:101EF00001894FF68F73194011430181704730B546
:101F000004460D4629462046FFF7F0FF208940F0A1
:101F10000700208130BD2DE9F04104460D461646EC
:101F20001F46602D06D13B46012231462046FFF771
:101F30005AFE05E03B46012231462046FFF79DFE52
:101F400029462046FFF7D2FF208940F00700208174
:101F5000BDE8F08130B50C4600210189C9B24FF6C9
:101F6000FF7505EA0325154325432943018130BD4B
:101F70002DE9F04105460E46174698460024434693
:101F80003A4631462846FFF7E5FF2C894FF6F870B0
:101F9000044044F007044FF68F70044044F070048E
:101FA0002C81BDE8F081F0B504460D4616461F466B
:101FB0003B46324629462046FFF7CCFF208940F4B5
:101FC00080402081F0BD0185828270470A46002151
:101FD00001884FF68F731940114301807047F0B5A7
:101FE0000C4615461E460021002200230189028B63
:101FF000038C4FF6F877394021434FF6FC473A40BF
:1020000040F201173A434FF6DD773B404FF6FF773A
:1020100007EA06172F433B43018102830384F0BD87
:102020000A460021018B4FF68F731940114301833B
:1020300070470A460021018B48F6FF7319404FF69E
:10204000FF7303EA02231943018370470A46002104
:10205000818B4FF68F7319401143818370470A4675
:102060000021818B48F6FF7319404FF6FF7303EA96
:10207000022319438183704721B1028842F0800214
:10208000028004E002884FF67F731A400280704796
:1020900021B1828842F00402828004E082884FF6F7
:1020A000FB731A408280704721B1828842F0080297
:1020B000828004E082884FF6F7731A40828070476E
:1020C00021B1828842F00102828004E082884FF6CA
:1020D000FE731A40828070470A460021018B4FF63A
:1020E000F77319401143018370470A460021018BA1
:1020F0004FF2FF7319404FF6FF7303EA02231943AF
:10210000018370470A460021818B4FF6F77319400F
:102110001143818370470A460021818B4FF2FF7380
:1021200019404FF6FF7303EA022319438183704776
:102130000A460021018B4FF6FB73194011430183BE
:1021400070470A460021018B4FF6FF3319404FF6C6
:10215000FF7303EA02231943018370470A460021F3
:10216000818B4FF6FB7319401143818370470A46F8
:102170000021818B4FF6FF3319404FF6FF7303EABE
:1021800002231943818370470A460021018B4FF6D1
:102190007F7319401143018370470A460021018B68
:1021A000C1F30E014FF6FF7303EA022319430183C3
:1021B00070470A460021818B4FF67F731940114307
:1021C000818370470A460021818BC1F30E014FF6CF
:1021D000FF7303EA02231943818370470A460021F3
:1021E000018C4FF6FD7319401143018470470A4674
:1021F0000021018C4FF6F773194011430184704799
:102200000A460021018C4FF6DF7319404FF6FF7329
:1022100003EA02131943018470470A460021018C26
:102220004FF67F7319404FF6FF7303EA0213194309
:10223000018470470A460021018C4FF6FF53194074
:102240004FF6FF7303EA02231943018470470A46DD
:102250000021018C4FF2FF7319404FF6FF7303EA20
:1022600002231943018470470A460021018C4DF670
:10227000FF7319404FF6FF7303EA023319430184D9
:10228000704730B5002301248C40A3B2048C9C43DA
:102290000484048C02FA01F5ADB22C43048430BDF1
:1022A00030B5002304248C40A3B2048C9C430484E6
:1022B000048C02FA01F5ADB22C43048430BD70B534
:1022C0000346002000241846183001258D40ACB28A
:1022D0001D8CA5431D8409B1082909D100EB6100BB
:1022E000056825F0700505600568154305600EE07A
:1022F0000D1FC5F34E052844056825F4E04505602B
:1023000005684FF6FF7606EA02263543056070BD84
:1023100021B1028842F00202028004E002884FF6F6
:10232000FD731A400280704721B1028842F0040216
:10233000028004E002884FF6FB731A400280704767
:1023400021B1828842F08002828004E082884FF6C8
:102350007F731A408280704702884FF6F7731A40E5
:10236000028002880A430280704782884FF68F738A
:102370001A40828082880A438280704702894FF621
:10238000F8731A40028102890A4302817047028968
:102390004FF67F731A40028102890A430281704717
:1023A00081847047818570478186704701877047B7
:1023B00081877047A0F84010704702884FF6FF43AE
:1023C0001A40028002880A43028070470146888EC4
:1023D00070470146088F70470146888F7047014655
:1023E000B1F8400070470146888C70470146088D5F
:1023F000704702460020138A0B400BB1012000E019
:1024000000207047CA430282704730B50246002060
:1024100000230024158A05EA0103958905EA0104D1
:1024200013B10CB1012000E0002030BDCA4302828C
:102430007047000010B50446FB48844209D10121D1
:102440008803FFF79FF800214FF48040FFF79AF8C8
:1024500032E0F648844209D101214804FFF79FF891
:1024600000214FF40030FFF79AF825E0F04884424D
:1024700009D101218804FFF792F800214FF4802050
:10248000FFF78DF818E0EB48844209D10121C80418
:10249000FFF785F800214FF40020FFF780F80BE0EC
:1024A000E548844208D101210805FFF778F80021AA
:1024B0004FF48010FFF773F810BD2DE9F04786B098
:1024C00005460E460024A24600BFA1460027B0895B
:1024D00000B100BF2F462C8A4CF6FF700440F088F4
:1024E00004432C82AC894EF6F3100440B088318945
:1024F0000843718908430443AC81AC8A4FF6FF401E
:102500000440B0890443AC8201A8FEF7B4FFC6487A
:10251000874202D1DDF810A001E0DDF80CA0A88907
:1025200000F4004040B10AEBCA0000EB0A10316829
:102530004900B0FBF1F807E00AEBCA0000EB0A1013
:1025400031688900B0FBF1F86420B8FBF0F00401B9
:102550002009642101FB1089A88900F4004040B1E2
:10256000322000EBC900B0FBF1F000F0070004439B
:1025700008E0322000EB09106421B0FBF1F000F01C
:102580000F0004432C8106B0BDE8F0874FF41651CC
:10259000016000218180C18001810C2141810021E5
:1025A0008181704710B502460020108A4FF2FF0368
:1025B00018400B884C8823438C882343CC882343C2
:1025C0001843108210BD0021018041808180C180AC
:1025D000704721B1828942F40052828104E08289ED
:1025E0004DF6FF731A4082817047F0B50346002410
:1025F00000260025002040F66A17B94200D100BF2E
:102600001846C1F3421401F01F06012707FA06F528
:10261000012C01D10C3004E0022C01D1103000E07B
:1026200014301AB107682F43076002E00768AF4310
:102630000760F0BD1AB1838A0B43838202E0838A6C
:102640008B4383827047028A4FF6F0731A400282EE
:10265000028A0A430282704782894FF2FF731A404E
:10266000828182890A438281704721B1828942F046
:102670000202828104E082894FF6FD731A40828152
:102680007047028A4FF6DF731A400282028A0A43B9
:102690000282704721B1028A42F48042028204E041
:1026A000028A4BF6FF731A4002827047C1F3080298
:1026B0008280704701468888C0F30800704781898E
:1026C00041F0010181817047028BD2B20283028BFB
:1026D00042EA012202837047028B02F47F420283A6
:1026E000028B0A430283704721B1828A42F02002A2
:1026F000828204E0828A4FF6DF731A40828270473A
:1027000021B1828A42F01002828204E0828A4FF66E
:10271000EF731A408282704721B1828A42F0080228
:10272000828204E0828A4FF6F7731A4082827047F1
:1027300021B1828942F40042828103E08289C2F39E
:102740000E028281704721B1828A42F40062828245
:1027500004E0828A4FF2FF731A4082827047828AB5
:102760004FF6FB731A408282828A0A438282704744
:1027700021B1828A42F00202828204E0828A4FF60C
:10278000FD731A408282704702460020B1F5007F37
:1027900000D100BF13880B400BB1012000E00020E6
:1027A000704701F40072B2F5007F00D100BFCA4348
:1027B0000280704770B502460024002300250020E7
:1027C00040F66A16B14200D100BFC1F3421501F0D4
:1027D0001F03012606FA03F3012D02D19689334027
:1027E00006E0022D02D1168A334001E0968A33407A
:1027F0000C12012606FA04F41688344013B10CB109
:10280000012000E0002070BD10B50022002340F63A
:102810006A14A14200D100BF0A1201249440A3B25D
:10282000DC43048010BD000000380140004400403B
:1028300000480040004C0040005000402DE9FF5F80
:1028400006460D4693464FF000082F46A9462C46F3
:10285000AA4606B125B94FF0FF3004B0BDE8F09F9D
:102860004FF0000853E0701C10F80800122848D2FE
:10287000DFE800F01A1B1C47471D1E1F2347474770
:1028800047272C3B280950A002F080FA3222394613
:10289000534802F0FEFB32225149524802F0F9FB44
:1028A0000120514908702DE02CE02BE02AE029E0BE
:1028B00028E001204D49087024E000204B490870B1
:1028C00020E01FE04AA002F061FA1BE0A1796279E2
:1028D0002379A068CDE90032CDE90210E378A2782F
:1028E000218848A002F052FA0CE051A002F04EFA02
:1028F00054A002F04BFA9AF8001056A002F046FAE3
:1029000000E000BF00BF08F1010000F0FF083078D0
:102910004045A8DC0020A0E710B53C21304802F07B
:102920002FFC10BD50480068401C4F49086070479C
:102930004D4800687047012080F3138800BF00BF36
:102940004A48006800F4E06049490843001D4749CF
:102950000860BFF34F8F00BF00BFFEE700B5FFF771
:10296000E1FF00BD08B5002000900121684600F09D
:1029700083F808BD70B505460E4600240DB9601EEB
:1029800070BD00241BE0295D3A48FFF78FFE00BFB1
:1029900040213848FFF7F8FE0028F9D0022C0DD36B
:1029A000285DFF280AD155213248FFF77FFE00BF7E
:1029B00040213048FFF7E8FE0028F9D0641CB442FB
:1029C000E1D33046DCE700004576743A20455645B1
:1029D0004E545F76616C7565646174610A00000035
:1029E0008201002088000020330000200000002029
:1029F0005452414E53504152454E545F444154410C
:102A0000200A0000574946495F4E5450203A205B47
:102A100025642D25642D256420253032643A253027
:102A200032643A253032645D5B25645D200A000023
:102A30004D4F44554C4520494E464F202E2E2E0AD0
:102A400000000000574946204D4F44554C45202E6C
:102A50002E2E0A006D6F64756C6554797065203A8E
:102A6000205B25645D200A00740000200CED00E06E
:102A70000000FA050044004070B504460D460026EB
:102A800024B9F2A002F082F9701E70BD2A462146D8
:102A9000F64802F01DF90646AE4205D0F4A002F059
:102AA00075F94FF0FF30F0E73046EEE710B5044619
:102AB0002CB9F6A002F06AF94FF0FF3010BD0020EB
:102AC00020606060FF20207060700020F6E770B525
:102AD00004460D462CB9F8A002F058F94FF0FF302B
:102AE00070BD5221FA4802F04BFB2A462146F848B5
:102AF000801C02F0CEFAF648A138A0F8ED50012172
:102B000080F8A210FFF714FFF149A139C1F8EF00D6
:102B10000020E5E770B505460C4616460DB104B138
:102B20002EB9ECA002F032F94FF0FF3070BD2878DA
:102B300000F0010058B111212278601C81542078E6
:102B4000401C20703222691C304602F0A2FA00209C
:102B5000ECE72DE9F04104460D460026002704B1BC
:102B600035B9E7A002F012F94FF0FF30BDE8F0816F
:102B7000FFF7DEFE074632222146284602F03EFAE3
:102B800018B1E9A002F002F9012695F83A0094F88C
:102B90003A10884203D0EAA002F0F8F8012695F82E
:102BA0003B0094F83B10884203D0ECA002F0EEF812
:102BB0000126D5F83200D4F83210884207D0ED480B
:102BC0000068381A41F27071884200D30126D5F8A6
:102BD0003600D4F83610884207D0E6480068381A24
:102BE00041F27071884200D30126012E03D1FFF714
:102BF0009FFEE04908603046B8E738B505460C4608
:102C000005B12CB9DCA002F0C1F84FF0FF3038BD9F
:102C1000002084F834003235287A2346012200212E
:102C20000090342001F07AFF687A23460122114691
:102C30000090342001F072FF012104F1340001F012
:102C400007FE2A680021012001F01BFE84F83200F3
:102C50006A68323D0021012001F013FE84F8330040
:102C600032222946204602F014FA0020CFE72DE94F
:102C7000F04780460C4617461D46089E94F8009083
:102C80000CB105B136B9C8A002F080F84FF0FF30A2
:102C9000BDE8F087B8F1000F55D113218C485230B0
:102CA00002F06EFAB9F1010F06D0B9F1020F12D09D
:102CB000B9F1050F45D124E0854AD332A2F1810153
:102CC000601CFFF727FF01208149A139087000250A
:102CD0000020306036E07E499E3101F17100FFF73F
:102CE0008CFF50B935227A499E31681C02F0D1F927
:102CF000032028703620306002E04FF0FF30C7E735
:102D000020E07A1E611C7248563802F0C2F9781E23
:102D10006F49A139C1F8950010216D48A13890F88C
:102D2000F320F4308154F43890F8F300401C6849E3
:102D3000A13981F8F30003200870002500203060DD
:102D400000E000BF00BF0020A2E72DE9F04FA7B0D0
:102D500006468B46174699460020269082468046B6
:102D6000002501ACBBF1000F06D19BA002F00EF8CC
:102D7000681E27B0BDE8F08FB9F1010F06D196F8B3
:102D8000088008F10600384485B201E0781D85B25C
:102D90002B464246394696A001F0F8FFFF2004F882
:102DA000010B04F8010B281204F8010B04F8015B75
:102DB0003079401C04F8010B707904F8010B0020F5
:102DC00004F8010B04F8019B4FF0080AB9F1010F58
:102DD0000DD104F8018B0AF1010A01A901EB0A00E7
:102DE000424606F1090102F054F9C244444437B1A5
:102DF00001A901EB0A003A46594602F04AF9291D99
:102E000001A801F059FB0146E81C01AA1154291D33
:102E100001A8FFF7AFFD26902698002806DA7EA0CD
:102E2000269901F0B3FF6FF00100A2E70020A0E7B0
:102E3000F0B591B005460E46174600242EB97CA089
:102E400001F0A4FF601E11B0F0BD05E14552523AF9
:102E50002067697A507574446174612062756620D8
:102E6000697320656D707479200A0000F8030020F2
:102E70004552523A204661696C656420746F207235
:102E8000625772697465200A000000004552523A88
:102E90002067697A50726F746F636F6C4865616404
:102EA000496E6974206865616420697320656D707E
:102EB0007479200A000000004552523A206461747F
:102EC0006120697320656D707479200A000000002C
:102ED0005F02002067697A44617461506F696E74A3
:102EE000324576656E74204572726F72202C2049CF
:102EF0006C6C6567616C20506172616D0A00000046
:102F000067697A436865636B5265706F72742045B8
:102F100072726F72202C20496C6C6567616C205056
:102F20006172616D0A00000076616C756576616C96
:102F3000756564617461204368616E6765640A0049
:102F400076616C756574656D705F616C61726D2022
:102F50004368616E6765640A0000000076616C7505
:102F60006568756D5F616C61726D204368616E6745
:102F700065640A007800002067697A4461746150D2
:102F80006F696E7473325265706F727444617461EC
:102F9000204572726F72202C20496C6C6567616CE1
:102FA00020506172616D0A0067697A50726F746FA8
:102FB000636F6C49737375656450726F6365737387
:102FC000204572726F72202C20496C6C6567616CB1
:102FD00020506172616D0A005B4552525D20206491
:102FE000617461204973204E756C6C200A000000EA
:102FF0006C656E203D202564202C20734469644C50
:10300000656E203D202564202C646174615F6C65D1
:103010006E203D2025640A00756172742077726904
:103020007465206572726F72202564200A000000AA
:1030300067697A5265706F72744461746120457279
:10304000726F72202C20496C6C6567616C20506136
:1030500072616D0A0000000001A8FFF727FD05203E
:103060008DF80800FE4890F89910D0F89900401C9F
:10307000FB4AC2F89900C8B28DF809008DF80C50CF
:103080003B2001F02CFAADF806003A4631460DF12E
:103090000D0001F0FEFF3F2101A801F00DFA8DF8AF
:1030A00042003F2101A8FFF765FC0446002C07DA27
:1030B0002146ECA001F06AFE6FF0010011B0F0BDF6
:1030C0003F2101A8FFF703FD2046F7E770B505464D
:1030D000FFF72EFC0446EA492846FFF73AFD01288F
:1030E00013D1E8A001F052FEE54971392846FFF7F7
:1030F00084FD28B93522E24971390420FFF798FE92
:103100003C222946DE4801F0C4FFE448B4FBF0F15C
:1031100000FB1140C8B9E2480068A04215D0E1A008
:1031200001F034FED64971392846FFF766FD28B90B
:103130003522D34971390420FFF77AFE3C22294613
:10314000CF4801F0A6FFD648046070BD2DE9FE4FC0
:1031500080460E4617464FF0000B00200290814635
:103160008246002534460090B8F1000F01D006B128
:1031700037B9D2A001F00AFE4FF0FF30BDE8FE8F54
:10318000404601F029FD00F0FF0ABAF1000F02D11C
:103190004FF0FF30F2E74FF000095DE0012201A996
:1031A000404601F044FD8346BBF1000F52D0CF48AA
:1031B0000078FF281FD19DF80400FF281BD1CC48C0
:1031C000007848B9FF20207060700220C94908804B
:1031D0000120C749087034E0C6480088042830DD63
:1031E000C4480088A8422CD0FF20207060700220C4
:1031F000C049088025E0BD480078FF2803D19DF82C
:10320000040055281DD0BA480078012819D19DF82E
:103210000400B84909886054B6480088401CB54984
:1032200008800846008804280BDD0094009C608814
:1032300001F055F9001D85B2AE480088A84200D1C2
:103240000CE09DF80400A9490870AB480078401CC8
:10325000A949087009F10109D1459FDB00BFA548C4
:103260000088042823DDA3480088A8421FD1A14874
:103270000188204601F020F902909E480088401EF7
:10328000215C029881420FD12A462146304601F046
:1032900000FF3D80002096490870964908809649B5
:1032A00008709249087069E76FF0010066E7012035
:1032B00064E710B500246A4890F8A20000B910BD78
:1032C0008EA001F063FD6648B0F8ED10A330FFF763
:1032D00051FB04466248B0F8ED00A04202D08FA036
:1032E00001F054FDFFF724FB5D49C1F8EF0000BF7A
:1032F000E5E770B504465A4DA33534B9AFF24840FE
:1033000001F044FD4FF0FF3070BD2879401C217959
:10331000884204D152215248A13001F031FF0020EF
:10332000F2E73EB50446002524B982A001F02EFD47
:10333000681E3EBD20680090606801909DF8040002
:10334000401CC0B28DF80400052001F0C8F8ADF8AB
:1033500002000921684601F0AFF88DF80800092144
:103360006846FFF707FB0546002D03DA29463DA016
:1033700001F00CFD2846DCE710B5394890F8A200B2
:10338000012827D1364890F8A10002281DDAFFF75E
:10339000CFFA3349D1F8EF10401AC8281AD9FFF7ED
:1033A000C7FA04462E4890F8A130D0F8EF20214605
:1033B0006BA001F0EBFCFFF77CFF294890F8A1001F
:1033C000401C274981F8A10004E052212448A13083
:1033D00001F0D6FE10BD30B59DB0044600252CB9D5
:1033E00069A001F0D3FC681E1DB030BD6846FFF730
:1033F0005DFB02208DF8040060798DF805006EA158
:1034000003C9CDE902016FA103C9CDE9040170A18F
:1034100003C9CDE9080171A103C9CDE90601202244
:1034200071A10AA801F07AFE202278A10DF15200C4
:1034300001F02FFE0020CDF84A00CDF84E009DF897
:1034400051008DF851009DF8510040F002018DF8B7
:103450005110002001F043F8ADF848006F20E7E07C
:10346000BE0100204552523A207561727420777275
:10347000697465206572726F72202564200A0000ED
:103480006E0300206368616E6765642C207265704E
:103490006F727420646174610A000000C027090023
:1034A0007C000020496E666F3A203630305320721F
:1034B00065706F727420646174610A0067697A5084
:1034C000726F746F636F6C4765744F6E65506163A4
:1034D0006B6574204572726F72202C20496C6C658C
:1034E00067616C20506172616D0A000084000020E9
:1034F0008000002082000020850000205761726E4D
:10350000696E673A2074696D656F75742C207265F9
:1035100073656E642064617461200A004552523AFA
:1035200020726573656E64206461746120657272D7
:103530006F720A004552523A2067697A50726F746E
:103540006F636F6C436F6D6D6F6E41636B20646171
:10355000746120697320656D707479200A00000021
:103560005761726E696E673A67697A50726F746FED
:10357000636F6C526573656E644461746120256489
:103580002025642025640A0067697A50726F746F81
:10359000636F6C476574446576696365496E666FF1
:1035A000204572726F72202C20496C6C6567616CCB
:1035B00020506172616D0A0030303030303030346C
:1035C0000000000030303030303030320000000079
:1035D00030333033303030300000000030333031A1
:1035E0003031303000000000383836373037323272
:1035F0006634623534613839386136383361656133
:103600003962363565646434000000003861303852
:10361000613334386162353534623539626563301F
:103620006336366364653431643066370000000009
:1036300000F055FFADF802007321684600F03CFF32
:103640008DF8720073216846FFF794F90546002D46
:1036500004DA2946AFF2F41001F098FB2846C3E6DD
:10366000FEB504460E46002524B9FEA001F08EFBEF
:10367000681EFEBD6846FFF719FA12208DF8040097
:1036800060798DF80500062000F029FFADF80200F2
:103690008DF808600A21684600F00EFF8DF80900D9
:1036A0000A216846FFF766F90546002D04DA294627
:1036B000AFF2502001F06AFB2846DAE770B5044605
:1036C00025462CB9F2A001F061FB4FF0FF3070BD30
:1036D000F448A9680160E9684160298A0181A97CF0
:1036E0008172A0F2ED11B1F8ED0100F0F8FEEE49A3
:1036F000A1F8ED01D1F8F50100F0FEFEEA49C1F8AC
:10370000F5010E21E84890F8192100F58D708154DB
:10371000E54890F81901401CE34981F8190104209B
:1037200008700020D3E710B5FFF702F9044600BF88
:10373000FFF7FEF8001BB0F5167FF9D9FFF7FBF88D
:1037400010BD10B504462CB9D8A001F01FFB4FF0F6
:10375000FF3010BD208900F0C2FE2081DF480078D4
:10376000C0F38000217AC1F3800188425AD0207AC8
:10377000C0F3800000282BD0207A00F0010080B137
:103780000021C94890F8062100F207108154C6486C
:1037900090F80601401CC44981F80601D0A001F050
:1037A000F5FA207AC0F3400000283BD00121BE4842
:1037B00090F8062100F207108154BB4890F80601EA
:1037C000401CB94981F80601CDA001F0DFFA29E0DB
:1037D000207A00F0010080B10021B34890F8062162
:1037E00000F207108154B04890F80601401CAE4921
:1037F00081F80601BAA001F0C9FA207AC0F34000AE
:1038000080B10221A84890F8062100F207108154E7
:10381000A54890F80601401CA34981F80601BFA005
:1038200001F0B4FAAD480078C0F3C000217AC1F3CA
:10383000C00188422ED0207AC108A848007861F3E0
:10384000C300A6490870207AC0F3C00088B10321E4
:10385000954890F8062100F207108154924890F89C
:103860000601401C904981F80601B3A001F08EFAD0
:1038700010E004218C4890F8062100F207108154D2
:10388000894890F80601401C874981F80601B2A0DA
:1038900001F07CFA91480078C0F30010217AC1F35E
:1038A000001188422ED0207A01098C48007861F3FB
:1038B00004108A490870207AC0F3001088B10521ED
:1038C000794890F8062100F207108154764890F864
:1038D0000601401C744981F80601A7A001F056FAC0
:1038E00010E00621704890F8062100F2071081547C
:1038F0006D4890F80601401C6B4981F80601A6A0AE
:1039000001F044FA75480078C0F34010217AC1F301
:10391000401188422ED0207A41097048007861F326
:1039200045106E490870207AC0F3401088B1072115
:103930005D4890F8062100F2071081545A4890F82B
:103940000601401C584981F806019CA001F01EFAAE
:1039500010E00821544890F8062100F20710815425
:10396000514890F80601401C4F4981F806019AA081
:1039700001F00CFA59484078C0F3C001607AC0F3F6
:10398000C00081422ED0607AC1085448407861F36B
:10399000C30052494870607AC0F3C00088B10B215F
:1039A000414890F8062100F2071081543E4890F8F3
:1039B0000601401C3C4981F806018FA001F0E6F9A0
:1039C00010E00C21384890F8062100F207108154CD
:1039D000354890F80601401C334981F806018DA056
:1039E00001F0D4F93D484078C0F30011607AC0F38B
:1039F000001081422ED0607A01093848407861F386
:103A0000041036494870607AC0F3001088B109216B
:103A1000254890F8062100F207108154224890F8BA
:103A20000601401C204981F8060182A001F0AEF990
:103A300010E00A211C4890F8062100F2071081547A
:103A4000194890F80601401C174981F8060180A02A
:103A500001F09CF90D21144890F8062100F207109E
:103A6000815403E167697A50726F746F636F6C45BC
:103A700072726F72436D64204572726F72202C20D7
:103A8000496C6C6567616C20506172616D0A000061
:103A90004552523A204E545020697320656D70741F
:103AA00079200A00AB030020BE01002067697A502C
:103AB000726F746F636F6C4D6F64756C6553746176
:103AC000747573204572726F72202C20496C6C657E
:103AD00067616C20506172616D0A000086000020F1
:103AE0004F6E426F617264696E673A20536F6674FD
:103AF0004150206F7220576562206D6F64650A0027
:103B00004F6E426F617264696E673A204169724C10
:103B1000696E6B206D6F64650A0000004F6E426F26
:103B2000617264696E673A2053746174696F6E20C4
:103B30006D6F64650A0000005769466920737461FF
:103B40007475733A20696E2062696E64696E6720CD
:103B50006D6F64650A0000005769466920737461DF
:103B60007475733A206F75742062696E64696E674C
:103B7000206D6F64650A000057694669207374619F
:103B80007475733A20636F6E6E656374656420723A
:103B90006F757465720A0000576946692073746115
:103BA0007475733A20646973636F6E6E65637465D0
:103BB0006420726F757465720A0000005769466967
:103BC000207374617475733A20636F6E6E656374ED
:103BD0006564206D326D0A0057694669207374610F
:103BE0007475733A20646973636F6E6E6563746590
:103BF00064206D326D0A0000576946692073746154
:103C00007475733A2061707020636F6E6E656374B3
:103C10000A00000057694669207374617475733A2D
:103C2000206E6F2061707020636F6E6E6563740A22
:103C30000000000057694669207374617475733A17
:103C400020696E2074657374206D6F64650A0000CE
:103C500057694669207374617475733A206F75747F
:103C60002074657374206D6F64650A00F94890F8DC
:103C70000601401CF74981F80601607A00F0070050
:103C800081F8EC01084690F8EC11F3A001F07EF801
:103C90000220F049087000205BE510B59420F2493D
:103CA0000860F248C860084600F078FF18B9F0A034
:103CB00001F06CF802E0F3A001F068F840F23A215C
:103CC000E44801F05DFA10BD30B587B00546002428
:103CD000062D7DD2DFE805F003316193C1F001A824
:103CE000FEF7E4FE0B208DF80800DA4890F89910F2
:103CF000D0F89900401CD74AC2F89900C8B28DF894
:103D00000900052000F0EBFBADF80600092101A831
:103D100000F0D2FB8DF80C00092101A8FEF72AFE65
:103D20000446002C04DA2146AFF6C80001F02EF854
:103D3000092101A8FEF7CBFEF0E004A8FEF7B6FECD
:103D400009208DF81400C34890F89910D0F8990014
:103D5000401CC04AC2F89900C8B28DF815008DF811
:103D60001850062000F0BBFBADF812000A2104A891
:103D700000F0A2FB8DF819000A2104A8FEF7FAFD55
:103D80000446002C04DA2146AFF6281000F0FEFFAE
:103D90000A2104A8FEF79BFEC0E004A8FEF786FEF9
:103DA00009208DF81400AB4890F89910D0F89900CC
:103DB000401CA84AC2F89900C8B28DF815008DF8C9
:103DC0001850062000F08BFBADF812000A2100E02D
:103DD000A0E004A800F070FB8DF819000A2104A8E7
:103DE000FEF7C8FD0446002C04DA2146AFF68C101D
:103DF00000F0CCFF0A2104A8FEF769FE8EE001A8BE
:103E0000FEF754FE13208DF80800924890F89910A0
:103E1000D0F89900401C8F4AC2F89900C8B28DF8BA
:103E20000900052000F05BFBADF80600092101A8A0
:103E300000F042FB8DF80C00092101A8FEF79AFD65
:103E40000446002C04DA2146AFF6E81000F09EFF8D
:103E5000092101A8FEF73BFE60E001A8FEF726FE5F
:103E600015208DF808007B4890F89910D0F899003B
:103E7000401C784AC2F89900C8B28DF809000520A4
:103E800000F02DFBADF80600092101A800F014FB9D
:103E90008DF80C00092101A8FEF76CFD0446002CEA
:103EA00004DA2146AFF6442000F070FF092101A892
:103EB000FEF70DFE32E0FFE701A8FEF7F7FD29202F
:103EC0008DF80800634890F89910D0F89900401CCC
:103ED000604AC2F89900C8B28DF80900052000F0C8
:103EE000FEFAADF80600092101A800F0E5FA8DF808
:103EF0000C00092101A8FEF73DFD0446002C04DA60
:103F00002146AFF6A02000F041FF092101A8FEF7ED
:103F1000DEFD03E060A000F039FF00BF00BF2046D7
:103F200007B030BD3EB500246846FEF7BFFD172040
:103F30008DF80400474890F89910D0F89900401C7B
:103F4000444AC2F89900C8B28DF80500052000F077
:103F5000C6FAADF802000921684600F0ADFA8DF806
:103F6000080009216846FEF705FD0446002C03DA27
:103F700021464FA000F00AFF09216846FEF7A7FD81
:103F80003EBD3EB500246846FEF790FD21208DF829
:103F90000400304890F89910D0F89900401C2D4A40
:103FA000C2F89900C8B28DF8050000208DF808000D
:103FB000062000F094FAADF802000A21684600F0ED
:103FC0007BFA8DF809000A216846FEF7D3FC044607
:103FD000002C03DA214636A000F0D8FE0A216846FC
:103FE000FEF775FD3EBD70B5044625462CB938A0D8
:103FF00000F0CCFE4FF0FF3070BD412205F108010A
:10400000374801F046F80F21124890F82C2100F2B1
:104010002D1081540F4890F82C01401C0D4981F857
:104020002C01052008700020E6E72DE9F041A8B03A
:1040300005460026002002900190002480460027BB
:1040400035B928A000F0A2FE601E28B0BDE8F081BE
:104050005CE00000BE0100205253534920697320E8
:104060002564200A00000000F80300200804002056
:10407000726243726561746520537563636573731F
:10408000200A0000726243726561746520466169AE
:104090006C64200A000000004552523A20436667D3
:1040A0004D6F6465206572726F72210A0000000016
:1040B0004552525B4E54505D3A20756172742077C0
:1040C00072697465206572726F72202564200A001F
:1040D0004E545020697320656D707479200A000079
:1040E000B703002047697A7769747348616E646C1E
:1040F00065204572726F72202C20496C6C65676177
:104100006C20506172616D0A00000000FFF734F905
:1041100002AAAA49AA48FFF719F80646002E71D14B
:10412000A8A000F033FEA54C20790F284FD00ADC60
:104130000E2873D2DFE800F07216721A72724338DA
:1041400072724472453C182852D006DC112847D0C0
:10415000142846D0162861D134E0222854D02A28C9
:104160005CD130E02046FFF736F95FE0E279A179D3
:1041700099A000F00BFE01A8009007F10900BDF81E
:1041800008301A1A8D480830C11903AB4046FEF7B3
:104190006EFD40B9E37903A92046019AFEF7D5FDEB
:1041A00091A000F0F3FD41E02046FFF7BAF83DE0B2
:1041B0002046FFF7B6F82046FFF7C3FA36E000BF07
:1041C00000BF00BF00BF2046FFF793F82EE0204657
:1041D000FFF7A7F887A000F0D9FDFFF7A4FA25E0C4
:1041E00024E02046FFF785F887A000F0CFFD1DE012
:1041F0002046FFF77EF82046FFF760FA8AA000F01D
:10420000C5FD13E013E009E02046FFF772F82046F1
:10421000FFF7E9FE8AA000F0B9FD07E00221204681
:10422000FFF71EFA8DA000F0B1FD00BF0FE016F100
:10423000020F0CD1614C01212046FFF711FA8DA02D
:1042400000F0A4FD6FF0010028B0BDE8F0815B48EC
:10425000401E0078062853D2DFE800F052031424F1
:10426000304100205549491E08703C2201F5BA71C1
:10427000A1F18100FEF7E2FA13215048F23000F07C
:104280007FFF3EE000204D49491E0870012201F5E4
:10429000F671A1F1E600FEF7D1FA13217B4800F098
:1042A0006FFF2EE000204549491E08700846D0F8EF
:1042B00095204B31F330FEF7C1FA22E000203F4950
:1042C000491E08700C2201F2ED11A1F1D400FEF795
:1042D000B5FA13216D48133000F052FF11E00020B1
:1042E0003649491E0870412201F2F911A1F1CD00B1
:1042F000FEF7A4FA41216548263000F041FF00E0B6
:1043000000BF00BF2846FEF7E1FE00209CE72DE934
:10431000F04194B006460F464FF0000801ACB81DBE
:1043200085B23EB95AA000F031FD4FF0FF3014B015
:10433000BDE8F081FF2004F8010B04F8010B2812FE
:1043400004F8010B04F8015B052004F8010B1B487D
:10435000401E90F89910D0F89900401C174A521E40
:10436000C2F8990004F8011B002004F8010B04F8BE
:10437000010B062004F8010B3A4631460DF10D0001
:1043800000F087FE291D01A800F096F80146E81C00
:1043900001AA1154291D01A8FEF7ECFA8046B8F1D4
:1043A000000F04DA4146AFF6447000F0EFFC291D1F
:1043B00001A8FEF78CFB0020B9E70000BF01002038
:1043C000F8030020476574204F6E65205061636BD1
:1043D0006574210A00000000666C61672025782062
:1043E0002578200A0000000041636B44617461205D
:1043F0003A200A007265706F72743A4D435520720C
:1044000065626F6F74210A0041636B2050524F4404
:10441000554354494F4E5F4D4F4445207375636378
:10442000657373200A00000041636B204745545FA9
:104430005554542073756363657373200A0000003C
:1044400041636B204745545F4D6F64756C65207305
:10445000756363657373200A000000004552523A89
:1044600020636D6420636F6465206572726F7221D2
:104470000A0000004552523A20636865636B20735E
:10448000756D206572726F72210A0000C4020020EF
:104490005B4552525D2067697A7769747350617326
:1044A000737468726F7567684461746120457272D5
:1044B0006F72200A0000000010B50246002400239D
:1044C00002B109B9002010BD022303E0D05C2044F2
:1044D000C4B25B1C481E9842F8D82046F3E701B5E9
:1044E00081B000200090694601AA507808701078C9
:1044F0004870BDF800000CBD0146080601F47F427B
:1045000040EA022001F47F0240EA122040EA1160F2
:10451000704710B502460024302A05DB392A03DC37
:10452000A2F13000C3B20EE0412A05DB462A03DCCB
:10453000A2F13700C3B206E0612A04DB662A02DC7E
:10454000A2F15700C3B2302905DB392903DCA1F100
:104550003000C4B20EE0412905DB462903DCA1F19D
:104560003700C4B206E0612904DB662902DCA1F150
:104570005700C4B204EB0310C0B210BD70B50446BE
:1045800000250026204600F065FD06460CB9681E91
:1045900070BD002505E0605D302801D00020F7E700
:1045A0006D1CB542F7D30120F2E72DE9F043034635
:1045B00000BF0025002400260027012901D0022980
:1045C0000DD1A3F1010C4FF06408BCFBF8F4BCFB67
:1045D000F8F908FB19C501F10C06174609E04FF080
:1045E000640CB3FBFCF4B3FBFCF80CFB18350E4673
:1045F000174606F1010C4FF01A080CFB08FC4FF0AF
:104600000A08BCFBF8FC05EB950808EB94084FF092
:10461000020909FB1488C444BC44ACF10100002821
:1046200006DB4FF0070C90FBFCF80CFB180C07E0C6
:104630004FF0070C90FBFCF80CFB180C0CF1070C6E
:104640006046BDE8F08301460A46C81701EB90704A
:104650008010A1EB800070B9642091FBF0F300FBA7
:10466000131030B94FF4C87091FBF0F300FB131036
:1046700008B9012070470020FCE710B50446204629
:10468000FFF7E1FF10B14FF4B77010BD40F26D10AD
:10469000FBE72DE9F04190B080460E4640F2B2753E
:1046A0003022694901A800F039FD344604F5E1449F
:1046B00000BF11E02846FFF7E0FF074640F2A320C5
:1046C0007843B4EBC01F06D340F2A3207843A4EB99
:1046D000C0146D1C00E001E0002CEBD100BFA8B2BB
:1046E000ADF83400002518E0BDF83400FFF7ABFF4B
:1046F00008B11D20029001A850F8250040F2A32126
:104700004843B4EBC01F07D301A850F82500484325
:10471000A4EBC0146D1C00E001E0002CE4D100BF4C
:104720001C200290681CC0B28DF83600012506E0FE
:104730004648844202D3241A6D1C00E001E0002C9C
:10474000F6D100BFE8B28DF837004FF46160B4FBDA
:10475000F0F0C0B28DF838004FF46160B4FBF0F1B6
:1047600000FB11403C21B0FBF1F0C0B28DF83900E4
:104770003C20B4FBF0F100FB11408DF83A00CDF87D
:104780003B600D98C8F800000E98C8F80400BDF80A
:104790003C00A8F808009DF83E0088F80A0010B018
:1047A000BDE8F0812DE9F05F80460E469146002479
:1047B0001CE016F814A06000401C16F800B050462B
:1047C00000F0D4FA3038C5B2092D01DDE81FC5B2BA
:1047D000584600F0CBFA3038C7B2092F01DDF81F78
:1047E000C7B207EB051008F80400641C4C45E0DB79
:1047F000BDE8F09FF0B5034600201EE00E5CF71701
:1048000006EB17773F1107F130050E5CF71706EB43
:1048100017773F11A6EB07173037FCB2392D01DDB2
:10482000EE1DF5B2392C01DDE61DF4B203F810508F
:10483000012606EB40069C55401C9042DEDB00261C
:1048400003F81260F0BD0000985900088051010083
:1048500030B502460B460021002400250AB9481E47
:1048600030BD002108E0545C581A401E155C5554B8
:10487000581A401E1454491CB1EB530FF3D30020B7
:10488000EEE710B503460020541AB4FBF3F010BD58
:1048900010B50346002002FB031010BD2DE9F047C0
:1048A00004460E46154600273146284600F0FEFF16
:1048B0008146214600F038FE804600F0F7FE0746AC
:1048C0003846BDE8F0872DE9F04704460E46154608
:1048D0000027284600F00AFF8146214600F01AFF13
:1048E0008046314600F0BEFD07463846BDE8F087F9
:1048F000024612B102F0070028B9082901D80020A9
:1049000070470120FCE702F00700C0F10800884270
:1049100001D30020F4E70120F2E72DE9F047054636
:10492000884614461E464FF00009CA460027002359
:1049300014B9581EBDE8F087EB0841462846FFF73A
:10494000D7FF07463FB9E05C05F0070106FA01F121
:104950000843E0541DE0012F1BD1F0B205F0070120
:10496000C1F1080140FA01F905F00700C0F10801A2
:10497000FF20084100EA060A581C205C40EA0900B2
:10498000591C6054E05C05F007010AFA01F1084384
:10499000E0540020CEE72DE9F04F8FB004460F46DB
:1049A00090461D460026B246B146B34600200E9002
:1049B000B8F1000F00D025B94FF0FF300FB0BDE8BF
:1049C000F08F4FEAD4092A46414601A800F061FB66
:1049D000012D09D9294601A8FFF73AFFB0F1FF3FA1
:1049E00002D14FF0FF30E9E739462046FFF780FF5C
:1049F0008246BAF1000F0CD101A810F8090004F0AA
:104A000007010841C7F10802FF2111410840064390
:104A100021E0BAF1010F1ED101A909F10100085CE2
:104A200004F00701C1F10801791AC1F10802FF2160
:104A3000114100EA010B01A810F8090004F0070178
:104A400008410E9004F00700C0F108010BFA01F0D4
:104A500006430E9806433046B0E72DE9F04F8FB07D
:104A600005460C4616469946189F4FF0000AD34655
:104A700000200E908046B9F1000F00D027B94FF00A
:104A8000FF300FB0BDE8F08F3A46494601A800F06C
:104A900000FB012F09D9394601A8FFF7D9FEB0F173
:104AA000FF3F02D14FF0FF30EBE731462046FFF7E2
:104AB0001FFF8246BAF1000F0CD101A8405D04F03F
:104AC00007010841C6F10802FF211141084040EAF0
:104AD000080821E0BAF1010F1ED101A9681C085C89
:104AE00004F00701C1F10801711AC1F10802FF21A8
:104AF000114100EA010B01A8405D04F007010841E3
:104B00000E9004F00700C0F108010BFA01F040EA32
:104B100008080E9848EA00084046B2E72DE9F04739
:104B200004460D461746089E4FF00009CA46C8467F
:104B30001BB94FF0FF30BDE8F08739462846FFF734
:104B4000D7FE8046B8F1000F07D1185D05F00701C8
:104B500006FA01F1084318551EE0B8F1010F1BD108
:104B6000F0B205F00701C1F1080140FA01F905F0C2
:104B70000700C0F10801FF20084100EA060A601C96
:104B8000185C40EA0900611C5854185D05F00701E3
:104B90000AFA01F1084318550020CCE7014611B983
:104BA0004FF0FF307047C8684860C86888600020D0
:104BB000F8E7014611B94FF0FF3070470020C86098
:104BC00048608860086000BFF7E7014611B94FF000
:104BD000FF3070470868FCE700B5024612B94FF095
:104BE000FF3000BD50689168884201D10020F8E78D
:104BF00050689168884203D290685168401AF0E783
:104C00001046FFF7E2FF51689368C91A401AE8E7B7
:104C100030B5044614B94FF0FF3030BD2046FFF7E1
:104C2000D4FF05462046FFF7D7FF281AF5E72DE900
:104C3000F04104460F461646002514B9681EBDE82B
:104C4000F08117B94FF0FF30F9E76068A16888423A
:104C500014D22046FFF7C0FFB04201D9304602E02F
:104C60002046FFF7B9FF054661682A46384600F03E
:104C700010FA6068284460602846E0E72046FFF7A5
:104C8000A4FF6168E268891A401AB0420AD9354621
:104C900061682A46384600F0FCF960682844606084
:104CA0002846CCE72046FFF790FF6168E268891A42
:104CB000451A61682A46384600F0EBF9E068606002
:104CC000721B79192046FFF7B2FF05442846B6E764
:104CD0002DE9F04104460F461546002604B11FB9E0
:104CE0004FF0FF30BDE8F0812046FFF791FFA8426A
:104CF00002D86FF00100F5E76068A16888422AD801
:104D00002046FFF762FFA168E268891A461AB54299
:104D100013D8A0682A46394600F0BBF9A068284499
:104D2000A0602046FFF751FFE1680844A16888426F
:104D300001D1E068A0602846D4E7A0683246394631
:104D400000F0A7F9E068A060AA1BB9192046FFF798
:104D5000BFFF3044C6E7A0682A46394600F099F9FB
:104D6000A0682844A0602846BCE7704710B50446F8
:104D700000F02CFA0068005D000704D5DF2C02D09B
:104D8000A4F1200010BD204610BD00000FB404495E
:104D900010B503AA029800F07BFA10BC5DF814FB72
:104DA0005800002070B5044685690068C10601D529
:104DB000302600E02026C00707D070BDD4E90121CD
:104DC00030469047206A401C20626D1EF6D570BDAB
:104DD00070B5044685690078C00707D170BDD4E975
:104DE000012120209047206A401C20626D1EF6D5CC
:104DF00070BD00002DE9F0410646002410687529B9
:104E0000314616A510D0AFF30080002802DA4042E8
:104E100013A507E031688A0701D512A502E049070A
:104E200004D511A5012401E0AFF3008000210A227E
:104E300006F1240709E0B0FBF2FCB0FBF2F302FB41
:104E40001C00303078541846491C0028F3D1234602
:104E50002A463046BDE8F04100F0C0B9000000002D
:104E60002D0000002B0000002000000070B504465B
:104E70000D4621461068AFF300802188090502D550
:104E80000F4A7A4402E00E4A7A440E32002104F1BD
:104E9000240305E000F00F060009965D5E54491CEE
:104EA0000028F7D120780023000704D5702D02D008
:104EB00009B1022311322046BDE8704000F08EB9DE
:104EC000420B00002DE9F05F894604464FF0000ACE
:104ED000DFF824B1FB44C0F820A02046E1688847F1
:104EE00000287DD0252806D0D4E901219047206AEA
:104EF000401C2062F1E700255F462046E1688847B4
:104F00002028064607DB312E05D2B81910F8200CF0
:104F100008B10543F1E7A80701D525F00405C4F859
:104F20001CA00027C4F818A02A2E09D0304600F093
:104F30007BFA38B304EB8708303EC8F8186019E0F4
:104F400059F8041B204604EB87029161E168884709
:104F5000012F064618D1E069002820DA25F0200547
:104F60001DE0D8F8180000EB800006EB4000303858
:104F7000C8F818002046E1688847064600F054FA51
:104F80000028EED1012F0AD02E2E08D12046E1684C
:104F900088477F1C0646022F45F02005C4DBA06928
:104FA000002803DA404245F00105A061E80701D07E
:104FB00025F01005A6B1A6F14100192802D8203627
:104FC00045F400654A463146204625604D46FBF7CC
:104FD000E9F860B1012807D0ED1D25F0070000E0D9
:104FE00007E000F1080978E705F1040975E73046A4
:104FF0007AE7206ABDE8F09F180B000040EA010341
:1050000010B59B070FD1042A0DD310C808C9121F71
:105010009C42F8D020BA19BA884201D9012010BDAB
:105020004FF0FF3010BD1AB1D30703D0521C07E078
:10503000002010BD10F8013B11F8014B1B1B07D1DC
:1050400010F8013B11F8014B1B1B01D1921EF1D14D
:10505000184610BD10B5431C02E010F8011B71B1D9
:105060008107FAD14FF0013202C88C1A8C4314EA3E
:10507000C211F9D0C01A0A0603D0C01E10BDC01A52
:1050800010BD0A0401D0801E10BD0902FCD0401ED4
:1050900010BD032A40F2308010F0030C00F01580A0
:1050A00011F8013BBCF1020F624498BF11F801CB2B
:1050B00000F8013B38BF11F8013BA2F1040298BF90
:1050C00000F801CB38BF00F8013B11F0030300F0FA
:1050D0002580083AC0F0088051F8043B083A51F89E
:1050E00004CBA0E80810F5E7121D5CBF51F8043BA3
:1050F00040F8043BAFF30080D20724BF11F8013B16
:1051000011F801CB48BF11F8012B24BF00F8013B77
:1051100000F801CB48BF00F8012B704710B5203ACA
:10512000C0F00B80B1E81850203AA0E81850B1E860
:105130001850A0E81850BFF4F5AF5FEA027C24BF16
:10514000B1E81850A0E8185044BF18C918C0BDE80D
:1051500010405FEA827C24BF51F8043B40F8043BD6
:1051600008BF7047D20728BF31F8023B48BF11F88B
:10517000012B28BF20F8023B48BF00F8012B7047E5
:105180004FF000020429C0F0128010F0030C00F070
:105190009380CCF1040CBCF1020F18BF00F8012B76
:1051A000A8BF20F8022BA1EB0C0100F085B85FEA44
:1051B000C17C24BF00F8012B00F8012B48BF00F888
:1051C000012B7047704770477047704710B500F06B
:1051D00099F8001D10BD00BF610200002DE9F047E5
:1051E0000D4699469246044600F124080168880657
:1051F00004D5E06921F01001216000E00120A842FF
:1052000001DD471B00E00027A1697A1902EB0900C4
:10521000081AA0612078C00602D42046FFF7C2FD1C
:10522000002608E0D4E901211AF806009047206A18
:10523000401C761C20624E45F4DB2078C0060AD55F
:105240002046FFF7AFFD06E0D4E90121302090476A
:10525000206A401C2062381EA7F10107F4DC07E039
:10526000D4E9012118F805009047206A401C20620B
:10527000281EA5F10105F3DC2046FFF7A9FD2078E3
:10528000000602D50220BDE8F0870120FBE7000000
:10529000074B70B50D467B4400F03DF804462846A8
:1052A00000F04CF810B14FF0FF3070BD204670BDDB
:1052B00027BAFFFF4FF0000200B51346944696460A
:1052C000203922BFA0E80C50A0E80C50B1F1200119
:1052D000BFF4F7AF090728BFA0E80C5048BF0CC0C7
:1052E0005DF804EB890028BF40F8042B08BF704725
:1052F00048BF20F8022B11F0804F18BF00F8012B97
:105300007047000000487047BC04002001694A1C37
:1053100002610878704700B58FB0CDE901310021F6
:10532000059105497944CDE9031011466846FFF718
:10533000C9FD0FB000BD0000E5FFFFFF007B00F0DE
:1053400080007047004870479C0400207546FFF7B6
:10535000F9FFAE4605006946534620F00700854632
:1053600018B020B5FBF758FDBDE820404FF000060F
:105370004FF000074FF000084FF0000B21F007013D
:10538000AC46ACE8C009ACE8C009ACE8C009ACE880
:10539000C0098D46704710B50446AFF30080204623
:1053A000BDE81040FAF71CBF4FF0013C50F8042B49
:1053B00051F8043B9A4221D1A2EB0C03934313EA28
:1053C000CC1317D150F8042B51F8043B9A4215D155
:1053D000A2EB0C03934313EACC130BD150F8042B2C
:1053E00051F8043B9A4209D1A2EB0C03934313EA10
:1053F000CC13DBD04FF00000704700BFD01A01BAC9
:10540000B1FA81F101F0180122FA01F0CB40C1F1AB
:105410002001DBB2C0B2C01A2CFA01F3D11A9143B9
:1054200011EAC311E6D1704730380A2801D20120B1
:10543000704700207047000010B500290AD0087896
:10544000002807D005487844FFF7AEFF002801D0B8
:10545000002010BD0248784410BD0000DE050000A9
:10546000D605000090EA010F48BF81F0004100F12D
:105470002482421A3CBF801A89184FEAD0524FF05A
:105480007F4C1CEA410FA2EBD15318BF9CEA026F7C
:1054900000F03B804FF0004C4CEA00204CEA012128
:1054A00021FA03FC10EB0C0C1ED202F1FF325FEA72
:1054B0001C2040EBC25038BF70471CF07F0F4FEAF2
:1054C000400C18BFBCF17F4F38BF7047C3F12003B9
:1054D000994008BF20F00100BCF17F4F38BF7047F2
:1054E000A0F1C04000F0DDB94FEA3C00000A40EBFB
:1054F000C25028BF1CF0FF0F4FEA400CE6D018BF87
:10550000BCF17F4F38BF7047EAE79CEA026F05D0D5
:1055100010EA5C0F08BF00F00040704710B500F0C3
:105520007AF900BF64FBBE3E4FF47F0C1CEAD01238
:105530001EBF1CEAD11392EA0C0F93EA0C0F00F085
:10554000858090EA010F48BF42F4807240F4000C5D
:1055500041F400002CF07F4120F07F4000B58142F3
:10556000A2EB03020FF2081CACEB504EC0F100009E
:105570009EF800E04FEA4E0E00FB0EFC38BF4900DB
:105580004FEA2C1C02F5FA020CFB0EF34FEACE1E7A
:105590004FEA112C4FEAC1210EEB635E42EB22422F
:1055A0000EFB0CFC4FEA1C5300FB03114FEA112CBD
:1055B0004FEA01310EFB0CFC4FEADC4C00FB0C11F6
:1055C000C14228BF09184CEB03335DF804EB10EB24
:1055D000410143EBC250B2F57C0F38BF704729D56B
:1055E00012F0F00F1CBF00F1C04000F00040704707
:1055F000008182838485868788898B8C8D8E8F91AC
:105600009293959697999A9C9D9FA0A2A3A5A7A8CF
:10561000AAACAEB0B2B3B5B7B9BCBEC0C2C5C7C9FB
:10562000CCCED1D4D7D9DCDFE2E6E9ECF0F3F7FA5F
:10563000FE0000004FEA400C0CF1807CBCF17E4F74
:1056400028BF7047B0F1C04000F02BB990EA010FBD
:105650000CEAD11348BF42F48072624538BF6345FB
:1056600007D213F47F0F16D080EA010000F000404B
:10567000704710B500F0CFF8097EFC3E00F005B889
:1056800080EA010000F00040704780EA010000F06D
:10569000004000F006B912F47F0F04BF02487047C3
:1056A00080EA010000F0FDB80000C07FC10DD1F11B
:1056B0009E0206DB4FEA002343F0004323FA02F088
:1056C0007047004207D54FEA4001B1F1FE4F02D2C8
:1056D0004FF00000704710B500F09DF8499224800B
:1056E000002070476FEA200070470000B0FA80F396
:1056F00010FA03F2C3F19D030AD0D90501EB122081
:10570000530638BF704700F1010008BF20F00100C8
:10571000704700004FF47F0C1CEAD0121EBF1CEA39
:10572000D11392EA0C0F93EA0C0F00F0478090EA35
:10573000010F48BF42F480724FF0004C4CEA002049
:105740004CEA012102EB0302A0FB0113A2F50002C7
:10575000002918BF43F001035B0028BF4FEA330361
:1057600042EB22425FEA132C4CEBC2502EBFBCEB43
:10577000436FB2F57C0F70474FEA036CBCF1004FEA
:1057800008BF20F00100B2F57C0F38BF70470BD581
:1057900082F0FF0212F5803FC8BF704700F1C040A1
:1057A000D8BF00F00040704700F5000C5FEA4C0CD9
:1057B00048BF7047B0F1C04000F073B890EA010FE5
:1057C0000CEAD11348BF42F48072624538BF63458A
:1057D00004D280EA010000F00040704710B500F0EC
:1057E0001AF800BF8900013E00F007B800F009B8C0
:1057F0005FEA410C5FEA1C6C08D080EA010000F00F
:1058000050B85FEA400C5FEA1C6CF6D14FF00040E4
:10581000A0F5800070470EF1020E2EF0030E5EF828
:10582000044B244204D44FEA4102B2F17F4F11D815
:105830004FEA4003B3F17F4F0CD80ED14FEAD07C32
:10584000B2F17F4F0CEB4C0C0CF1020C08BF4CEB8F
:10585000D17C04E04FF0080C01E04FEAD17C0CEB66
:105860004C0324FA03F404F00704B4F1040C06D248
:105870000EEB840CBDE810404CF0010C6047DFE8F3
:105880000CF0070802024FF00040A0F5800010BDA8
:105890000846420018BFD2F1807288BF00F0004075
:1058A00010BDFF2141EAD050C005704790EA010FBA
:1058B00048BF81F000413FF5DCAD421A04D882F0C8
:1058C0000042A0EB020011444FEAD0524FF07F4C4F
:1058D0001CEA410FA2EBD15318BF9CEA026F4AD0D9
:1058E0004FF0004C4CEA00204CEA012121FA03FC65
:1058F000B0EB0C0C0FD412F0FE0F36D05FEA4C0068
:105900001DD5001240EBC25038BF70471CF03F0F4E
:1059100018BF70470BE0A2F101025FEA1C2040EBC8
:10592000C25038BF70471CF07F0F18BF7047C3F1DB
:105930002003994014BF401E20F0010070478008EA
:105940004FEA122308BF7047B0FA80FCA2EB0C02AA
:10595000CCF1280C60FA0CF093EA122F04BF00EB94
:10596000C25070474FEAC3707047130A5FEADC10F9
:1059700008BF7047F6E79CEA026F04D010EA5C0F9C
:1059800008BF0020704710B5FFF745FF40DFF63E27
:1059900081F00040704700001F0000001C00000064
:1059A0001F0000001E0000001F0000001E0000007D
:1059B0001F0000001F0000001E0000001F0000006C
:1059C0001E0000001F0000003031323334353637FE
:1059D0003839414243444546403058003031323333
:1059E0003435363738396162636465664030780033
:1059F0000400000800000000000000020001000098
:105A000010000000345B0008000000208800000047
:105A10006C010008BC5B00088800002078160000BC
:105A2000880100081001000043000000F8FFFFFF9C
:105A300000404040404040404040414141414140A1
:105A40004040404040404040404040404040404056
:105A500040050202020202020202020202020202E5
:105A600002202020202020202020200202020202EA
:105A70000202909090909090101010101010101042
:105A8000101010101010101010101010020202024E
:105A90000202888888888888080808080808080892
:105AA000080808080808080808080808020202028E
:105AB00040000000000000000000000000000000A6
:105AC00000000000000000000000000000000000D6
:105AD00000000000000000000000000000000000C6
