:020000040800F2
:10000000B01A00205D0E00085503000857030008D1
:100010005B0300085F0300086303000800000000A2
:10002000000000000000000000000000670300085E
:1000300069030008000000006B0300086D0300085E
:10004000770E0008770E0008770E0008770E00087C
:10005000770E0008770E0008770E0008770E00086C
:10006000770E0008770E0008770E0008770E00085C
:10007000770E0008770E0008770E0008770E00084C
:10008000770E0008770E0008770E0008770E00083C
:10009000770E0008770E0008770E0008770E00082C
:1000A000770E0008770E0008770E0008770E00081C
:1000B000770E000855070008770E0008770E000835
:1000C000770E0008770E0008770E0008770E0008FC
:1000D000770E00089B0D0008150E00089D280008EB
:1000E000770E0008770E0008770E0008770E0008DC
:1000F000770E0008770E0008770E0008770E0008CC
:10010000770E0008770E0008770E0008770E0008BB
:10011000770E0008770E0008770E0008B90800086F
:10012000770E0008770E0008770E0008770E00089B
:1001300000F002F800F090F80AA090E8000C824469
:100140008344AAF10107DA4501D100F085F8AFF246
:10015000090EBAE80F0013F0010F18BFFB1A43F0A5
:1001600001031847846F0000A46F0000103A24BFF9
:1001700078C878C1FAD8520724BF30C830C144BF0C
:1001800004680C607047000000230024002500264E
:10019000103A28BF78C1FBD8520728BF30C148BFEA
:1001A0000B6070476E2905F0E081702904F0B38779
:1001B000662906F0FC86652906F0F986672906F0AF
:1001C000F686612906F0F58603681B0A28BF41F010
:1001D0008001692904F02487642904F021877529A6
:1001E00004F01E876F2905F0D982782904F07F87F3
:1001F000E92905F07382E42905F07082F52905F0FC
:100200006D82EF2905F0D682F82904F07E87036815
:10021000DB0928BF41F08001632905F0E2817329E1
:1002200005F0E781E32905F0D586F32905F0DA86A4
:10023000002070471FB505F0EFFA040000200021F0
:1002400006F0F0FB401C60600020002106F000FC7E
:10025000E0601FBD10B510BD05F0F0FE1146FFF7C0
:10026000E9FF00F01BF805F0BDFF03B4FFF7F2FF54
:1002700003BC00F049FC000010B541F61F41092005
:1002800000F0E7FA4FF4165000F098FC28212048BF
:1002900005F0D2F803F0F0FD10BD704700F0CAFB86
:1002A0004FF4A06000F0FAFD4FF4E13000F03AFCAA
:1002B0004FF4165002F017FB00F022FB41F61F41ED
:1002C00040F2CF7000F01AFA21E0114803F06CFF01
:1002D000002000F04BFB0446022C05D10DA004F0D9
:1002E0002DFE022003F0DFFD042C05D111A004F047
:1002F00025FE002003F0D7FDC82000F0D8FB1448ED
:10030000006808B9012000E0002011490860DCE71E
:100310006C0000205749464920BDF8C8EB204169D0
:10032000724C696E6B20C1ACBDD3C4A3CABD0D0AAB
:10033000000000005749464920B8B4CEBBA3ACC763
:10034000EBD6D8D0C2C5E4D6C3C1ACBDD30D0A002C
:1003500094812142704700BFFEE700BFFEE700BF67
:10036000FEE700BFFEE77047704770477047000028
:100370000CB50020019000906C48006840F480307B
:100380006A49086000BF6948006800F400300090C6
:100390000198401C0190009818B90198B0F5A06F21
:1003A000F1D16248006800F4003010B101200090E3
:1003B00001E0002000900098012843D15C480068CB
:1003C00040F010005A4908600846006820F0030019
:1003D00008600846006840F0020008605348406822
:1003E000524948600846406848600846406840F402
:1003F000806048600846406820F47C1048600846E9
:10040000406840F4E81048600846006840F080709A
:10041000086000BF4548006800F000700028F9D06F
:100420004248406820F00300404948600846406860
:1004300040F00200486000BF3C48406800F00C00FB
:100440000828F9D10CBD10B5FFF792FF10BD10B50B
:100450003648006840F001003449086008464068AA
:10046000344908403149486008460068324908402C
:100470002E4908600846006820F48020086008467D
:10048000406820F4FE0048604FF41F008860FFF7CA
:10049000DAFF4FF000602949086010BD10B5002157
:1004A00000200022214B5B6803F00C0121B10429DC
:1004B00006D0082928D107E0214B224C236027E0F1
:1004C0001F4B204C236023E0184B5B6803F4701033
:1004D000164B5B6803F48032022303EB904022B991
:1004E000194B4343174C23600DE0104B5B6803F43A
:1004F000003323B1144B4343124C236003E0104BF1
:100500004343104C236003E00D4B0E4C236000BFAF
:1005100000BF064B5B68C3F303130C4CE15C094B53
:100520001B68CB40074C236010BD00000010024048
:10053000002002400000FFF8FFFFF6FE08ED00E09B
:1005400000127A000000002000093D000400002095
:1005500010B56548006820F0F0006349086008465F
:10056000006840F0300008600020604908601420F6
:1005700000F09DFA01205E49C1F884011E2000F0C0
:1005800072FA10BD10B500245748006820F0F00042
:10059000554908600846006840F08000086004E0A3
:1005A000601CC4B2012000F05EFA50488038006838
:1005B00008B1642CF4DB642C01DB012010BD0024A5
:1005C00004E0601CC4B2012000F04DFA47488038B6
:1005D000006808B9642CF4DB642C01DB0120EDE732
:1005E0000020EBE710B5002404E0601CC4B2012039
:1005F00000F039FA3D488038006808B1642CF4DB1B
:10060000002404E0601CC4B2012000F02CFA37483A
:100610008038006808B9642CF4DB282000F023FA45
:1006200032488038006808B1012010BD0020FCE786
:1006300070B50024002506E06006040EFFF7D2FF27
:100640000443681CC5B2082DF6DB204670BD7CB59E
:1006500005460E46FFF77CFFFFF794FFF8B900242C
:1006600005E0FFF7E5FF0DF80400601CC4B2052C9F
:10067000F7DB9DF800009DF8011008449DF802107A
:1006800008449DF8031008449DF80410884208D1DE
:100690009DF8000030709DF80200287001E00120F4
:1006A0007CBD0020FCE708B50121042000F080FF9C
:1006B0000220ADF8000010208DF8030003208DF813
:1006C00002006946084800F0B7FC0221064800F025
:1006D00060FDFFF73DFFFFF755FF08BD10B5054969
:1006E0000548FFF7B4FF10BD000801408401214216
:1006F0000000214215000020140000207FB50546AF
:100700000C460121022000F060FFADF80850ADF862
:1007100004400020ADF80A00ADF8060001A96D48BC
:1007200001F082FA012211466A4801F0F4FD1D2011
:100730008DF8000002208DF801008DF802000120E4
:100740008DF80300684600F0AEFB0121614801F01E
:10075000C7FD7FBD10B501215E4802F08AF850B395
:10076000FFF7BCFF00F0DCF85B48007801281ED1E1
:1007700000205A4908600FE05949584B1B68CA5C71
:100780005849564B1B68C81857A104F0E3FB53485F
:100790000068401C51490860504800685349097876
:1007A0008842E9DB00204C4908705049087001215B
:1007B000484802F06FF810BD30B589B005460C46C8
:1007C0000121022000F001FF0121192000F0F0FEBC
:1007D0000121474800F001FD0121464800F0FDFCE1
:1007E000C020ADF8200018208DF8230003208DF8DC
:1007F000220008A9404800F01FFCADF81850ADF8E1
:1008000014400020ADF81A00ADF8160005A93148D3
:1008100001F00AFA7020ADF804000120ADF80600DE
:100820000220ADF80C0001A92A4801F07CFA01A9C8
:10083000284801F036FA0821264801F08AFE0821EE
:10084000244801F07DFE0121224801F049FD09B054
:1008500030BD7FB505460C460121202000F0B5FED5
:10086000264801F00DF9ADF80450ADF80040002025
:10087000ADF80600ADF802006946204801F0D4F951
:10088000012211461D4801F046FD37208DF80C006D
:1008900000208DF80D0001208DF80E008DF80F005E
:1008A00003A800F000FB0121144801F019FD00200D
:1008B0001249243108807FBD10B501210F4801F095
:1008C000D8FF28B101210D4801F0E4FF02F009F939
:1008D00010BD000000040040510000202000002056
:1008E0004800002018000020256300005000002070
:1008F00000023000000C1A000010014000140040FB
:1009000008B50121802000F053FE0120ADF8000061
:1009100048208DF803006946054800F08DFB08BDAE
:1009200004480068012800D170470020FCE700005F
:10093000001C01400081234208B50121442000F041
:1009400037FE1C20ADF8000048208DF803006946F2
:10095000354800F071FB0120ADF8000028208DF82B
:1009600003006946314800F067FB08BD10B5044636
:1009700014B101202E4908702D480078002837D086
:100980001021294800F0EBFB78B10821264800F03F
:10099000E6FB50B10421244800F0E1FB28B101211D
:1009A000224800F0DCFB012822D10A2000F07FF869
:1009B00000201F49087010211B4800F0D0FB08B927
:1009C000012010BD0821184800F0C9FB08B9022019
:1009D000F7E70421144800F0C2FB08B90320F0E750
:1009E0000121124800F0BBFB01281BD10420E8E7DD
:1009F00010210D4800F0B3FB012813D108210A484B
:100A000000F0ADFB01280DD10421074800F0A7FB41
:100A1000012807D10121054800F0A1FB10B90120F0
:100A2000034908700020CCE700180140000801408D
:100A30002400002010B56FF0040000F07EFA2E486C
:100A400000682E49B0FBF1F02D4908700846007887
:100A500000EB4001C1EBC0104FF6FF7101EAC0008E
:100A60002849088010BD0146254A12784A434FF0B4
:100A7000E0235A6100229A611A46126942F001028B
:100A80001A6100BF4FF0E022106900F001021AB1B4
:100A900000F48032002AF5D04FF0E022126922F0F3
:100AA00001024FF0E0231A6100229A61704701466B
:100AB000144A12884A434FF0E0235A6100229A6197
:100AC0001A46126942F001021A6100BF4FF0E0229B
:100AD000106900F001021AB100F48032002AF5D04A
:100AE0004FF0E022126922F001024FF0E0231A6178
:100AF00000229A61704700000000002000127A0076
:100B0000260000202800002000BF704700BFCA4A0E
:100B1000128802F04002002AF9D0C2B2C64B1B1D57
:100B20001A80704710B586B00446012144F20400D3
:100B300000F03EFD4FF40070ADF8140003208DF876
:100B4000160018208DF8170005A9BC4800F074FAAB
:100B50004FF48060ADF8140004208DF8170005A94B
:100B6000B64800F069FA25208DF8000003208DF8C2
:100B700001008DF8020001208DF80300684600F0A6
:100B800092F901940020ADF80800ADF80A00ADF824
:100B90000C00ADF810000C20ADF80E0001A9A6481D
:100BA00000F0ADFD012240F22551A34800F03FFEC8
:100BB0000121A14800F02FFE06B010BD10B586B08F
:100BC00004460121480400F000FD0121042000F04A
:100BD000EFFC9B4800F050FD0420ADF8140003200A
:100BE0008DF8160018208DF8170005A9934800F01D
:100BF00023FA0820ADF8140004208DF8170005A989
:100C00008E4800F019FA26208DF8000002208DF899
:100C1000010003208DF8020001208DF803006846D2
:100C200000F041F901940020ADF80800ADF80A0089
:100C3000ADF80C00ADF810000C20ADF80E0001A9C5
:100C40007F4800F05CFD012240F225517C4800F015
:100C5000EEFD01217A4800F0DEFD06B010BD10B5B2
:100C600086B004460121C80400F0AFFC0121102029
:100C700000F09EFC4FF48060ADF8140003208DF866
:100C8000160018208DF8170005A96E4800F0D4F959
:100C90004FF40060ADF8140004208DF8170005A98A
:100CA000684800F0C9F934208DF8000003208DF861
:100CB000010000208DF8020001208DF80300684635
:100CC00000F0F1F801940020ADF80800ADF80A003A
:100CD000ADF80C00ADF810000C20ADF80E0001A925
:100CE000594800F00CFD012240F22551564800F011
:100CF0009EFD0121544800F08EFD06B010BD10B5D8
:100D000086B004460121080500F05FFC0121302077
:100D100000F04EFC4FF48050ADF8140003208DF825
:100D2000160018208DF8170005A9464800F084F930
:100D30000420ADF814008DF8170005A9434800F011
:100D40007BF935208DF8000002208DF8010003208A
:100D50008DF8020001208DF80300684600F0A3F82A
:100D600001940020ADF80800ADF80A00ADF80C00C1
:100D7000ADF810000C20ADF80E0001A9344800F0C9
:100D8000BEFC012240F22551314800F050FD012106
:100D90002F4800F040FD06B010BD10B540F22551BF
:100DA000254800F029FE10B3234800F0A5FDC4B289
:100DB0002848008800F40040C8B92648008800F49C
:100DC000804060B10A2C03D000202249088020E036
:100DD0002048008840F400401E49088019E00D2C8E
:100DE00006D11C48008840F480401A49088010E071
:100DF00018480088C0F30D0017490C5415480088A6
:100E0000401C1449088008460088C72801DD0020DE
:100E1000088010BD08B540F22551094800F0ECFDEE
:100E200040B1074800F068FDC0B20090012168465B
:100E300001F000FF08BD000000380140000801403B
:100E40000044004000100140004C004000140140EC
:100E500000500040300000209400002009488047E6
:100E600009480047FEE7FEE7FEE7FEE7FEE7FEE78C
:100E7000FEE7FEE7FEE7FEE704480549054A064BA4
:100E8000704700004F04000831010008B00800203E
:100E9000B01A0020B00A0020B00A002031490143F6
:100EA000314A1160704770B5002100230F22C478C9
:100EB00004B32D4C246804F4E064C4F5E064210A12
:100EC000C1F10403CA40447804FA03F18478144061
:100ED00021430901254C0678A155047804F01F052B
:100EE0000124AC4005786D11AD0005F1E025C5F891
:100EF000004109E0047804F01F050124AC401C4DBA
:100F00000678761145F8264070BD1A4A0A40024319
:100F1000154B1B1F1A60704739B1134A121D126816
:100F20000243114B1B1D1A6006E00F4A121D126886
:100F300082430D4B1B1D1A607047042808D14FF0E7
:100F4000E021096941F004014FF0E022116107E05E
:100F50004FF0E021096921F004014FF0E022116116
:100F6000704700000000FA050CED00E000E400E02E
:100F700080E100E080FFFF1F10B50446CC488442AA
:100F800008D10121042000F02DFB0021042000F0F5
:100F900029FB46E0C748844208D10121082000F01F
:100FA00021FB0021082000F01DFB3AE0C2488442EA
:100FB00008D10121102000F015FB0021102000F0C5
:100FC00011FB2EE0BD48844208D10121202000F011
:100FD00009FB0021202000F005FB22E0B8488442F4
:100FE00008D10121402000F0FDFA0021402000F04E
:100FF000F9FA16E0B348844208D10121802000F0BC
:10100000F1FA0021802000F0EDFA0AE0AE488442B7
:1010100007D10121801500F0E5FA0021A01500F0AC
:10102000E1FA10BD10B50121084600F0DBFA0021FD
:10103000012000F0D7FA10BD2DE9F041024600254D
:101040000026002000230024002791F803C00CF0A4
:101050000F0591F803C00CF0100CBCF1000F03D089
:1010600091F802C04CEA050591F800C0BCF1000FF0
:1010700031D0146800202BE04FF0010C0CFA00F383
:10108000B1F800C00CEA03069E4220D183004FF065
:101090000F0C0CFA03F7BC4305FA03FC4CEA0404FA
:1010A00091F803C0BCF1280F06D14FF0010C0CFAE7
:1010B00000FCC2F814C00AE091F803C0BCF1480F6C
:1010C00005D14FF0010C0CFA00FCC2F810C0401C16
:1010D0000828D1D31460B1F800C0BCF1FF0F34DD93
:1010E000546800202EE000F1080C4FF0010808FAC7
:1010F0000CF3B1F800C00CEA03069E4221D1830034
:101100004FF00F0C0CFA03F7BC4305FA03FC4CEA52
:10111000040491F803C0BCF1280F05D100F1080CBC
:1011200008FA0CF8C2F8148091F803C0BCF1480F1B
:1011300007D100F1080C4FF0010808FA0CF8C2F8CA
:101140001080401C0828CED35460BDE8F0814FF6D3
:10115000FF710180022181700421C1707047024635
:10116000002093680B400BB1012000E00020704785
:101170000146886880B2704702460020D3680B4061
:101180000BB1012000E0002070470146C86880B222
:10119000704701617047416170470AB1016100E029
:1011A00041617047C16070474FF480320A438261E9
:1011B0008161826182698269704702460020434BE7
:1011C00018684FF68073184040EA021008433F4BFE
:1011D000186070473E49C8617047F0B50A46002361
:1011E00000240021002500F00046B6F1004F02D196
:1011F000364EF16901E0354E7168C0F3034583B2A4
:1012000000F44016B6F5401F08D121F070612F4E52
:10121000766826F070662D4F7E6012E000F480162E
:10122000B6F5801F06D1032606FA05F4A14341F066
:10123000706106E0460D360103FA06F6B14341F04F
:10124000706122B1460D360103FA06F6314300F013
:101250000046B6F1004F02D11C4EF16101E01B4E79
:101260007160F0BD30B500228B071C0F0F2303FA0D
:1012700004F2164B08338C1053F824309343134C6C
:1012800008348D1044F8253023468C1053F8243050
:101290008C07240F00FA04F423430C4C08348D10FF
:1012A00044F8253030BD0A49DC3108607047000041
:1012B00000080140000C01400010014000140140F2
:1012C00000180140001C01400020014000000140C6
:1012D00000002042DF48006840F00100DD4908605E
:1012E00008464068DC490840DA494860084600681A
:1012F000DA490840D74908600846006820F4802091
:1013000008600846406820F4FE0048604FF41F0063
:1013100088607047CF49096821F48031CD4A116057
:101320001146096821F480211160B0F5803F03D097
:10133000B0F5802F0ED106E0C649096841F480312E
:10134000C44A116007E0C349096841F4A021C14AB9
:10135000116000E000BF00BF704710B501460022D9
:10136000002300204A11012A02D1BA4C236806E06A
:10137000022A02D1B74C236A01E0B64C636A01F03D
:101380001F02012494401C400CB1012000E0002009
:1013900010BD38B5002000900024002500BF31208A
:1013A000FFF7DBFF05460098401C00900098B0F561
:1013B000A06F01D0002DF2D03120FFF7CEFF08B191
:1013C000012400E00024204638BD01460020A14A47
:1013D000106820F0F80040EAC10010607047A04992
:1013E00008607047024600209A4B586820F47C1031
:1013F00042EA01031843974B5860704798490866C2
:10140000704701460020934A506820F003000843CB
:10141000506070478F48406800F00C0070470146EC
:1014200000208C4A506820F0F0000843506070475C
:1014300001460020874A506820F4E060084350606D
:10144000704701460020834A506820F4605040EA0B
:10145000C1005060704729B17E4A527A02437D4BE9
:101460005A7204E07B4A527A82437A4B5A7270472E
:101470007B49D8310860704701460020754A5068A2
:1014800020F440400843506070470021714A2032E8
:101490001170704A82F82010012802D004280AD165
:1014A00004E001216B4A2032117005E00521694AF0
:1014B0002032117000E000BF00BF7047694908602A
:1014C00070476449096A0143624A1162704765497D
:1014D00044390860704730B5002100220024002301
:1014E0005C4D6D6805F00C0121B1042905D0082977
:1014F00023D105E05C4D056022E05B4D05601FE0F7
:10150000544D6D6805F47012524D6D6805F48034C9
:10151000022505EB92421CB9544D554305600BE082
:101520004C4D6D6805F400351DB1504D55430560B7
:1015300002E04D4D5543056002E04B4D056000BF94
:1015400000BF444D6D6805F0F0010909484D6B5C22
:101550000568DD4045603F4D6D6805F4E061090AAE
:10156000434D6B5C4568DD4085603A4D6D6805F420
:101570006051C90A3E4D6B5C4568DD40C560354D24
:101580006D6805F44041890B3A4D6B5CC568B5FB4D
:10159000F3F5056130BD29B12E4A526902432D4B46
:1015A0005A6104E02B4A526982432A4B5A617047C0
:1015B00029B1284A92690243264B9A6104E0254AE0
:1015C00092698243234B9A61704729B1214AD269BB
:1015D0000243204BDA6104E01E4AD26982431D4B6C
:1015E000DA61704729B11B4AD2680243194BDA60AD
:1015F00004E0184AD2688243164BDA60704729B17A
:10160000144A12690243134B1A6104E0114A126929
:101610008243104B1A617047124940390860704785
:101620000F49C86470470B49C87170470948406A40
:1016300040F0807007494862704701460020054A23
:1016400092680A400AB1012000E000207047014979
:1016500088727047001002400000FFF8FFFFF6FE9E
:10166000000042428004424200127A0000093D001C
:10167000320000204200002010B50446FB4884429E
:1016800009D101218803FFF7ADFF00214FF480400D
:10169000FFF7A8FF32E0F648844209D1012148044F
:1016A000FFF7ADFF00214FF40030FFF7A8FF25E062
:1016B000F048844209D101218804FFF7A0FF0021EE
:1016C0004FF48020FFF79BFF18E0EB48844209D1DC
:1016D0000121C804FFF793FF00214FF40020FFF71A
:1016E0008EFF0BE0E548844208D101210805FFF791
:1016F00086FF00214FF48010FFF781FF10BD2DE918
:10170000F04786B005460E460024A24600BFA1461B
:101710000027B08900B100BF2F462C8A4CF6FF701D
:101720000440F08804432C82AC894EF6F310044048
:10173000B08831890843718908430443AC81AC8A7D
:101740004FF6FF400440B0890443AC8201A8FFF784
:10175000C2FEC648874202D1DDF810A001E0DDF8E4
:101760000CA0A88900F4004040B10AEBCA0000EBCD
:101770000A1031684900B0FBF1F807E00AEBCA0033
:1017800000EB0A1031688900B0FBF1F86420B8FB67
:10179000F0F004012009642101FB1089A88900F4FC
:1017A000004040B1322000EBC900B0FBF1F000F086
:1017B0000700044308E0322000EB09106421B0FB6D
:1017C000F1F000F00F0004432C8106B0BDE8F08773
:1017D0004FF41651016000218180C18001810C21EC
:1017E000418100218181704710B502460020108A96
:1017F0004FF2FF0318400B884C8823438C88234307
:10180000CC8823431843108210BD00210180418001
:101810008180C180704721B1828942F40052828167
:1018200004E082894DF6FF731A4082817047F0B55B
:101830000346002400260025002040F66A17B9421E
:1018400000D100BF1846C1F3421401F01F06012762
:1018500007FA06F5012C01D10C3004E0022C01D16D
:10186000103000E014301AB107682F43076002E01F
:101870000768AF430760F0BD1AB1838A0B438382C8
:1018800002E0838A8B4383827047028A4FF6F073AB
:101890001A400282028A0A430282704782894FF20A
:1018A000FF731A40828182890A438281704721B185
:1018B000828942F00202828104E082894FF6FD7340
:1018C0001A4082817047028A4FF6DF731A40028203
:1018D000028A0A430282704721B1028A42F480429E
:1018E000028204E0028A4BF6FF731A4002827047BC
:1018F000C1F308028280704701468888C0F308005F
:101900007047818941F0010181817047028BD2B219
:101910000283028B42EA012202837047028B02F4A7
:101920007F420283028B0A430283704721B1828A7D
:1019300042F02002828204E0828A4FF6DF731A406E
:101940008282704721B1828A42F01002828204E0D2
:10195000828A4FF6EF731A408282704721B1828AE1
:1019600042F00802828204E0828A4FF6F7731A403E
:101970008282704721B1828942F40042828103E071
:101980008289C2F30E028281704721B1828A42F4B9
:101990000062828204E0828A4FF2FF731A408282E0
:1019A0007047828A4FF6FB731A408282828A0A430A
:1019B0008282704721B1828A42F00202828204E070
:1019C000828A4FF6FD731A408282704702460020D9
:1019D000B1F5007F00D100BF13880B400BB101208F
:1019E00000E00020704701F40072B2F5007F00D1E2
:1019F00000BFCA430280704770B50246002400232E
:101A00000025002040F66A16B14200D100BFC1F3A4
:101A1000421501F01F03012606FA03F3012D02D13E
:101A20009689334006E0022D02D1168A334001E048
:101A3000968A33400C12012606FA04F416883440C4
:101A400013B10CB1012000E0002070BD10B50022E0
:101A5000002340F66A14A14200D100BF0A120124FB
:101A60009440A3B2DC43048010BD00000038014064
:101A70000044004000480040004C0040005000403E
:101A800010B50446FE48844208D10121C014FFF776
:101A9000A9FD0021E014FFF7A5FDC4E0B4F1804FDB
:101AA00008D101210846FFF7AAFD00210120FFF718
:101AB000A6FDB8E0F348844208D101210220FFF7D7
:101AC0009EFD00210220FFF79AFDACE0EE48844223
:101AD00008D101210420FFF792FD00210420FFF727
:101AE0008EFDA0E0E948844208D101210820FFF7DB
:101AF00086FD00210820FFF782FD94E0E44884423F
:101B000008D101211020FFF77AFD00211020FFF7F6
:101B100076FD88E0DF48844208D101212020FFF7CC
:101B20006EFD00212020FFF76AFD7CE0DA48844248
:101B300008D101214014FFF755FD00216014FFF783
:101B400051FD70E0D548844209D10121C804FFF756
:101B500049FD00214FF40020FFF744FD63E0D04829
:101B6000844209D101210805FFF73CFD00214FF413
:101B70008010FFF737FD56E0CA48844209D10121A1
:101B80004805FFF72FFD00214FF40010FFF72AFD55
:101B900049E0C548844208D101214020FFF72FFDCC
:101BA00000214020FFF72BFD3DE0C048844208D1D2
:101BB00001218020FFF723FD00218020FFF71FFD7A
:101BC00031E0BB48844208D101218015FFF717FDA1
:101BD0000021A015FFF713FD25E0B648844209D186
:101BE00001210804FFF7FEFC00214FF48030FFF7CD
:101BF000F9FC18E0B048844209D101214804FFF7FC
:101C0000F1FC00214FF40030FFF7ECFC0BE0AB4897
:101C1000844208D101218804FFF7E4FC00214FF43D
:101C20008020FFF7DFFC10BD00220288944B984211
:101C30000ED0994B98420BD0B0F1804F08D0914B09
:101C4000984205D0904B984202D0904B984204D1D4
:101C50004FF68F731A404B881A438D4B984207D02A
:101C60008C4B984204D04FF6FF431A40CB881A435E
:101C700002808B8883850B880385814B98420BD02B
:101C8000854B984208D08B4B984205D08A4B98429E
:101C900002D08A4B984201D10B7A038601238382BA
:101CA000704770B5002400220023058C4FF6FE76A5
:101CB00035400584028C8388048B4FF68F752C4049
:101CC000B51E2C400D882C43751E2A400D892A43D1
:101CD0004D882A436A4DA8420BD06F4DA84208D0C8
:101CE000744DA84205D0744DA84202D0734DA8424D
:101CF00013D14FF6F7752A404D892A434FF6FB75ED
:101D00002A408D882A434FF6FF652B404FF6FF553A
:101D10002B408D892B43CD892B4383800483CD8831
:101D20008586028470BD70B5002400220023058CD6
:101D30004FF6EF7635400584028C8388048B48F695
:101D4000FF752C404FF6FF452C400D884FF6FF766F
:101D500006EA05252C434FF6DF752A400D8906EA71
:101D600005152A434D8806EA05152A43444DA84225
:101D700002D0494DA8421DD14FF67F752A404D89AA
:101D80004FF6FF7606EA05152A434FF6BF752A403F
:101D90008D8806EA05152A434FF6FF352B404FF292
:101DA000FF752B408D8906EA85052B43CD8906EA10
:101DB00085052B4383800483CD880587028470BD0D
:101DC00070B5002400220023058C4FF6FF663540D5
:101DD0000584028C8388848B4FF68F752C404FF6D8
:101DE000FC752C400D882C434FF6FF552A400D8979
:101DF0004FF6FF7606EA05252A434D8806EA0525B3
:101E00002A431F4DA84202D0234DA8421DD14FF2B4
:101E1000FF752A404D894FF6FF7606EA05252A43CD
:101E20004FF6FF352A408D8806EA05252A434EF6EF
:101E3000FF752B404DF6FF752B408D8906EA051581
:101E40002B43CD8906EA05152B4383808483CD88F7
:101E50008587028470BD70B5002200230024058CA4
:101E60004EF6FF7635400584038C8488828B48F6D5
:101E7000FF752A404FF6FF452A400D8820E00000FC
:101E8000002C01400004004000080040000C00400D
:101E9000001000400014004000340140004C01409C
:101EA000005001400054014000180040001C004058
:101EB0000020004000400140004401400048014033
:101EC0004FF6FF7606EA05252A434DF6FF752B40AF
:101ED0000D8906EA05352B434D8806EA05352B4367
:101EE000FA4DA84202D0FA4DA84208D14BF6FF7530
:101EF0002C408D894FF6FF7606EA85152C438480A9
:101F00008283CD88A0F84050038470BD828B4FF24D
:101F1000FF331A408283828B4FF6FF7303EA01235B
:101F20001A4382837047F0B50C4615460022002103
:101F30000026078C4EF6FF7C07EA0C070784828B8D
:101F4000018C4FF6FF7707EA043640F6FF473A4028
:101F50004FF6FF7707EA05273A434FF6FF7707EA80
:101F600003373A43D94FB8420ED0D94FB8420BD0BD
:101F7000B0F1804F08D0D74FB84205D0D64FB84205
:101F800002D0D64FB84206D14DF6FF77394046F41D
:101F90008057394305E047F6FF57394044F48057EE
:101FA000394382830184F0BD828B4FF6F3731A406C
:101FB0008283828B0A4382837047F0B50C461546B4
:101FC000002200210026078C4FF6FF6C07EA0C0761
:101FD0000784828B018C4FF6FF7707EA04264FF6C1
:101FE0000C773A404FF6FF7707EA03172F433A433F
:101FF000B64FB8420ED0B64FB8420BD0B0F1804FBA
:1020000008D0B44FB84205D0B34FB84202D0B34F56
:10201000B84206D14FF6FF57394046F4807739432E
:1020200005E04FF2FF57394044F48077394382830B
:102030000184F0BD028B4FF2FF331A400283028B02
:102040004FF6FF7303EA01231A4302837047F0B58A
:102050000C461546002200210026078C4FF6EF7C27
:1020600007EA0C070784028B018C4FF6FF7707EA1B
:10207000041640F6FF473A404FF6FF7707EA03376A
:102080003A434FF6FF7707EA05273A438F4FB842A6
:102090000ED08F4FB8420BD0B0F1804F08D08D4F8B
:1020A000B84205D08C4FB84202D08C4FB84206D10E
:1020B0004FF6DF77394046F01007394305E04FF619
:1020C0005F77394044F01007394302830184F0BD43
:1020D000028B4FF6F3731A400283028B0A4302838A
:1020E0007047F0B50C46154600220021068C4FF6CD
:1020F000FE773E400684028B018C4FF60C76324010
:102100007E1C06EA03162E433243704EB0420ED0B8
:102110006F4EB0420BD0B0F1804F08D06D4EB04240
:1021200005D06D4EB04202D06C4EB04206D14FF693
:10213000FD76314044F00106314305E04FF6F57677
:10214000314044F00106314302830184F0BD70B593
:1021500005460C465D4885420ED05D4885420BD051
:10216000B5F1804F08D05B48854205D05A4885427A
:1021700002D05A48854200D100E000BF208850B903
:102180002389A28861882846FFF7ABFFE1882846AB
:10219000FFF79EFF25E0208804280AD12389A28822
:1021A00061882846FFF753FFE1882846FFF742FF82
:1021B00017E0208808280AD12389A2886188284648
:1021C000FFF7FBFEE1882846FFF7EEFE09E02389D2
:1021D000A28861882846FFF7A6FEE1882846FFF717
:1021E00095FE70BD2DE9F04105460C4600260127FD
:1021F000608808B9022600E00026A088012801D1E5
:10220000022700E001272088A0B92389A2886188DD
:102210002846FFF766FFE1882846FFF759FF238924
:102220003A4631462846FFF712FFE1882846FFF775
:1022300001FF13E02389A28861882846FFF707FF82
:10224000E1882846FFF7F6FE23893A4631462846BC
:10225000FFF747FFE1882846FFF73AFFBDE8F08126
:102260000A884B881A438B881A43CB881A430B89F8
:102270001A434B891A438B891A43A0F844207047AC
:102280004FF6FF71818000210180C1804180017281
:1022900070470021018041808180C180018141819E
:1022A0008181C181704700210180418001218180AD
:1022B0000021C1800181704700210180418081801F
:1022C000C18001814181818170470000002C014063
:1022D000003401400004004000080040000C0040B1
:1022E00021B1028842F00102028004E002884FF628
:1022F000FE731A400280704731B1B0F8442042F4B6
:102300000042A0F8442005E0B0F84420C2F30E02D9
:10231000A0F8442070471AB183890B43838102E0FF
:1023200083898B43838170478182704741EA02032E
:10233000A0F8483070471AB183890B43838102E0CB
:1023400083898B438381704701894FF6F87211406E
:10235000018170470A46002101894FF68F731940A9
:1023600011430181704730B504460D462946204689
:10237000FFF7F0FF208940F00700208130BD2DE9F4
:10238000F04104460D4616461F46602D06D13B46D9
:10239000012231462046FFF75AFE05E03B46012266
:1023A00031462046FFF79DFE29462046FFF7D2FF23
:1023B000208940F007002081BDE8F08130B50C464F
:1023C00000210189C9B24FF6FF7505EA03251543BF
:1023D00025432943018130BD2DE9F04105460E46D4
:1023E00017469846002443463A4631462846FFF7AA
:1023F000E5FF2C894FF6F870044044F007044FF6CF
:102400008F70044044F070042C81BDE8F081F0B579
:1024100004460D4616461F463B4632462946204690
:10242000FFF7CCFF208940F480402081F0BD01857A
:10243000828270470A46002101884FF68F73194047
:10244000114301807047F0B50C4615461E46002129
:10245000002200230189028B038C4FF6F877394064
:1024600021434FF6FC473A4040F201173A434FF6FA
:10247000DD773B404FF6FF7707EA06172F433B43D4
:10248000018102830384F0BD0A460021018B4FF6CF
:102490008F7319401143018370470A460021018B55
:1024A00048F6FF7319404FF6FF7303EA02231943FE
:1024B000018370470A460021818B4FF68F731940C4
:1024C0001143818370470A460021818B48F6FF73D0
:1024D00019404FF6FF7303EA0223194381837047C3
:1024E00021B1028842F08002028004E002884FF6A7
:1024F0007F731A400280704721B1828842F0040243
:10250000828004E082884FF6FB731A408280704715
:1025100021B1828842F00802828004E082884FF66E
:10252000F7731A408280704721B1828842F001021D
:10253000828004E082884FF6FE731A4082807047E2
:102540000A460021018B4FF6F773194011430183AE
:1025500070470A460021018B4FF2FF7319404FF676
:10256000FF7303EA02231943018370470A460021DF
:10257000818B4FF6F77319401143818370470A46E8
:102580000021818B4FF2FF7319404FF6FF7303EA6E
:1025900002231943818370470A460021018B4FF6BD
:1025A000FB7319401143018370470A460021018BD8
:1025B0004FF6FF3319404FF6FF7303EA0223194326
:1025C000018370470A460021818B4FF6FB73194047
:1025D0001143818370470A460021818B4FF6FF33F8
:1025E00019404FF6FF7303EA0223194381837047B2
:1025F0000A460021018B4FF67F7319401143018376
:1026000070470A460021018BC1F30E014FF6FF739C
:1026100003EA02231943018370470A460021818B94
:102620004FF67F7319401143818370470A4600219A
:10263000818BC1F30E014FF6FF7303EA02231943A6
:10264000818370470A460021018C4FF6FD731940C3
:102650001143018470470A460021018C4FF6F7733D
:1026600019401143018470470A460021018C4FF63E
:10267000DF7319404FF6FF7303EA02131943018415
:1026800070470A460021018C4FF67F7319404FF6C0
:10269000FF7303EA02131943018470470A460021BD
:1026A000018C4FF6FF5319404FF6FF7303EA0223E4
:1026B0001943018470470A460021018C4FF2FF73D1
:1026C00019404FF6FF7303EA022319430184704750
:1026D0000A460021018C4DF6FF7319404FF6FF7337
:1026E00003EA023319430184704730B50023012403
:1026F0008C40A3B2048C9C430484048C02FA01F540
:10270000ADB22C43048430BD30B5002304248C408A
:10271000A3B2048C9C430484048C02FA01F5ADB28C
:102720002C43048430BD70B50346002000241846B5
:10273000183001258D40ACB21D8CA5431D8409B114
:10274000082909D100EB6100056825F070050560D6
:102750000568154305600EE00D1FC5F34E052844BE
:10276000056825F4E045056005684FF6FF7606EA42
:1027700002263543056070BD21B1028842F0020295
:10278000028004E002884FF6FD731A400280704711
:1027900021B1028842F00402028004E002884FF670
:1027A000FB731A400280704721B1828842F0800298
:1027B000828004E082884FF67F731A4082807047DF
:1027C00002884FF6F7731A40028002880A4302809B
:1027D000704782884FF68F731A40828082880A433E
:1027E0008280704702894FF6F8731A40028102898D
:1027F0000A430281704702894FF67F731A400281B3
:1028000002890A430281704781847047818570473D
:10281000818670470187704781877047A0F8401014
:10282000704702884FF6FF431A40028002880A432D
:10283000028070470146888E70470146088F7047B6
:102840000146888F70470146B1F840007047014645
:10285000888C70470146088D704702460020138A15
:102860000B400BB1012000E000207047CA430282F8
:10287000704730B50246002000230024158A05EA7F
:102880000103958905EA010413B10CB1012000E0B0
:10289000002030BDCA4302827047000010B500BF5F
:1028A00040F225515248FFF7A7F858B15049091D89
:1028B0000988CAB24F490878411C4E4B19704E49DD
:1028C0000A540FE040F224414948FFF795F848B117
:1028D00047480088C4B24648001D0088C4B20120A1
:1028E0004649087010BD10B586B004460121082085
:1028F000FEF75EFE01218804FEF767FE3C48FEF706
:10290000BBFE4FF48060ADF8100003208DF812007C
:1029100018208DF8130004A93948FEF78DFB4FF4F9
:102920000060ADF8100004208DF8130004A93448AD
:10293000FEF782FB00940020ADF80400ADF806001D
:10294000ADF80800ADF80C000C20ADF80A0069469F
:102950002748FEF7D4FE01212548FEF75CFF01223F
:1029600040F225512248FEF762FF012240F2244145
:102970001F48FEF75CFF40211D48FFF734F8272071
:102980008DF8140001208DF8150000208DF8160038
:1029900001208DF8170005A8FEF785FA00211948D7
:1029A000FFF79EFC06B010BD0FB438B505A8009027
:1029B0001548009A049902F0AFFA002000901248DE
:1029C00002F0A4FC85B200240DE000BF40210848BD
:1029D000FEF7FCFF0028F9D00B48015D0448FEF724
:1029E00087FF601C84B2AC42EFDB38BC5DF814FB9F
:1029F0000048004050000020480000205100002006
:102A0000000C014000140040B40300202DE9FF5FDA
:102A100006460D4693464FF000082F46A9462C4621
:102A2000AA4606B125B94FF0FF3004B0BDE8F09FCB
:102A30004FF000084AE0701C10F8080012283FD23E
:102A4000DFE800F01213143E3E151617183E3E3E06
:102A50003E1923321F094BA002F070FA1E2239469C
:102A60004E4802F072FC2CE02BE02AE029E028E03E
:102A700027E026E025E099F8001049A002F05EFA70
:102A80001FE04AA002F05AFA1BE0A179627923798B
:102A9000A068CDE90032CDE90210E378A278218860
:102AA00047A002F04BFA0CE050A002F047FA54A005
:102AB00002F044FA9AF8001055A002F03FFA00E044
:102AC00000BF00BF08F1010000F0FF08307840456A
:102AD000B1DC0020A9E710B52821304802F0ACFC99
:102AE00010BD50480068401C4E49086070474D4872
:102AF00000687047012080F3138800BF00BF4A4878
:102B0000006800F4E06049490843001D4649086038
:102B1000BFF34F8F00BF00BFFEE700B5FFF7E1FF37
:102B200000BD08B5002000900121684600F082F841
:102B300008BD70B505460E4600240DB9601E70BD77
:102B400000241BE0295D3A48FEF7D2FE00BF402179
:102B50003748FEF73BFF0028F9D0022C0DD3285D43
:102B6000FF280AD155213248FEF7C2FE00BF40219E
:102B70002F48FEF72BFF0028F9D0641CB442E1D3A4
:102B80003046DCE74576743A204556454E545F762C
:102B9000616C7565646174610A0000006C0000205E
:102BA000525353492025640A000000005452414EFC
:102BB00053504152454E545F44415441200A000055
:102BC000574946495F4E5450203A205B25642D25D5
:102BD000642D256420253032643A253032643A254C
:102BE0003032645D5B25645D200A00004D4F445522
:102BF0004C4520494E464F202E2E2E0A0000000044
:102C0000574946204D4F44554C45202E2E2E0A0044
:102C10006D6F64756C6554797065203A205B25642E
:102C20005D200A00540000200CED00E00000FA05D1
:102C30000044004070B504460D46002624B9F2A0B9
:102C400002F07CF9701E70BD2A462146F64802F05B
:102C500005F90646AE4205D0F4A002F06FF94FF038
:102C6000FF30F0E73046EEE710B504462CB9F6A089
:102C700002F064F94FF0FF3010BD0020206060606A
:102C8000FF20207060700020F6E770B504460D4606
:102C90002CB9F8A002F052F94FF0FF3070BD3E2180
:102CA000FA4802F0C9FB2A462146F848801C02F087
:102CB0004CFBF6487938A0F8B150012180F87A1021
:102CC000FFF715FFF1497939C1F8B3000020E5E7B6
:102CD00070B505460C4616460DB104B12EB9ECA0F0
:102CE00002F02CF94FF0FF3070BD287800F00100A1
:102CF00058B111212278601C81542078401C20702A
:102D00001E22691C304602F020FB0020ECE770B563
:102D100004460D46002604B12DB9E8A002F00EF9D4
:102D20004FF0FF3070BD1E222146284602F0C2FA45
:102D300018B1ECA002F002F9012695F8260094F8EB
:102D40002610884203D0EDA002F0F8F8012695F88D
:102D5000270094F82710884203D0EFA002F0EEF885
:102D60000126D5F81E00D4F81E10884210D0FFF7B7
:102D7000BEFEEF490968401A41F27071884207D3DC
:102D8000ECA002F0DBF8FFF7B2FEE949086001268B
:102D9000D5F82200D4F82210884210D0FFF7A7FE01
:102DA000E3490968401A41F27071884207D3E8A0EC
:102DB00002F0C4F8FFF79BFEDD49086001263046AB
:102DC000B0E738B505460C4605B12CB9E6A002F0CF
:102DD000B5F84FF0FF3038BD002084F820001E35D4
:102DE000287A2346012200210090202001F05CFF78
:102DF000687A2346012211460090202001F054FFFA
:102E0000012104F1200001F0E9FD2A6800210120E0
:102E100001F0FDFDA0776A681E3D0021012001F050
:102E2000F6FDE0771E222946204602F08EFA0020A9
:102E3000D1E72DE9F04780460C4617461D46089E0F
:102E400094F800900CB105B136B9D3A002F076F831
:102E50004FF0FF30BDE8F087B8F1000F55D11321D6
:102E60008A483E3002F0E8FAB9F1010F06D0B9F114
:102E7000020F12D0B9F1050F45D124E0834AAB32DD
:102E8000A2F16D01601CFFF723FF01207F49793912
:102E9000087000250020306036E07C498A3101F15D
:102EA0004900FFF78EFF50B9212278498A31681C0A
:102EB00002F04BFA032028702220306002E04FF02D
:102EC000FF30C7E720E07A1E611C7048423802F0EC
:102ED0003CFA781E6D497939C1F86D0010216B48B4
:102EE000793890F8B720B8308154B83890F8B700E6
:102EF000401C6649793981F8B70003200870002525
:102F00000020306000E000BF00BF0020A2E72DE9F4
:102F1000F04F9DB006468B461746994600201C9000
:102F200082468046002501ACBBF1000F06D1A6A069
:102F300002F004F8681E1DB0BDE8F08FB9F1010F72
:102F400006D196F8088008F10600384485B201E001
:102F5000781D85B22B4642463946A1A001F0EEFF0E
:102F6000FF2004F8010B04F8010B281204F8010BF0
:102F700004F8015B3079401C04F8010B707904F807
:102F8000010B002004F8010B04F8019B4FF0080A24
:102F9000B9F1010F0DD104F8018B0AF1010A01A961
:102FA00001EB0A00424606F1090102F0CEF9C244E3
:102FB000444437B101A901EB0A003A46594602F0F0
:102FC000C4F9291D01A801F03DFB0146E81C01AA36
:102FD0001154291D01A8FFF7ACFD1C901C98002876
:102FE00006DA89A01C9901F0A9FF6FF00100A2E7A1
:102FF0000020A0E7F0B58BB005460E46174600242A
:1030000006B90DE112E100004552523A2067697A93
:10301000507574446174612062756620697320651F
:103020006D707479200A0000CE0700204552523A94
:10303000204661696C656420746F20726257726902
:103040007465200A000000004552523A2067697AF0
:1030500050726F746F636F6C48656164496E697418
:10306000206865616420697320656D707479200A39
:10307000000000004552523A206461746120697377
:1030800020656D707479200A00000000850600201C
:1030900067697A44617461506F696E743245766510
:1030A0006E74204572726F72202C20496C6C6567BB
:1030B000616C20506172616D0A00000067697A439B
:1030C0006865636B5265706F7274204572726F72BF
:1030D000202C20496C6C6567616C20506172616DB9
:1030E0000A00000076616C756576616C75656461D7
:1030F0007461204368616E6765640A0076616C756F
:103100006574656D705F616C61726D204368616E9E
:103110006765640A0000000076616C756568756D0E
:103120005F616C61726D204368616E6765640A005F
:103130005C00002076616C756554656D7065726128
:1031400074757265204368616E6765640A000000EB
:1031500076616C756548756D69646974792043683A
:10316000616E6765640A000067697A446174615042
:103170006F696E7473325265706F727444617461FA
:10318000204572726F72202C20496C6C6567616CEF
:1031900020506172616D0A0067697A50726F746FB6
:1031A000636F6C49737375656450726F6365737395
:1031B000204572726F72202C20496C6C6567616CBF
:1031C00020506172616D0A005B4552525D2020649F
:1031D000617461204973204E756C6C200A000000F8
:1031E0006C656E203D202564202C20734469644C5E
:1031F000656E203D202564202C646174615F6C65E0
:103200006E203D2025640A00756172742077726912
:103210007465206572726F72202564200A000000B8
:10322000FAA001F08BFE601E0BB0F0BD6846FFF700
:103230001BFD05208DF80400FE4890F87110D0F8B1
:103240007100401CFB4AC2F87100C8B28DF805003D
:103250008DF80850272001F008FAADF802003A4630
:1032600031460DF1090002F070F82B21684601F09B
:10327000E9F98DF82A002B216846FFF75AFC04462D
:10328000002C06DA2146ECA001F058FE6FF0010098
:10329000CAE72B216846FFF7F8FC2046C4E770B563
:1032A0000546FFF724FC0446EA492846FFF72FFDB0
:1032B000012813D1E8A001F041FEE649493928462A
:1032C000FFF77FFD28B92122E24949390420FFF7A1
:1032D00091FE28222946DF4802F037F8E448B4FB83
:1032E000F0F100FB1140C8B9E2480068A04215D0D7
:1032F000E1A001F023FED74949392846FFF761FDD7
:1033000028B92122D34949390420FFF773FE282226
:103310002946D04802F019F8D648046070BD2DE95E
:10332000FE4F80460E4617464FF0000B00200290DD
:1033300081468246002534460090B8F1000F01D046
:1033400006B137B9D2A001F0F9FD4FF0FF30BDE86A
:10335000FE8F404601F006FD00F0FF0ABAF1000FB3
:1033600002D14FF0FF30F2E74FF000095DE001229B
:1033700001A9404601F021FD8346BBF1000F52D068
:10338000CF480078FF281FD19DF80400FF281BD1EB
:10339000CC48007848B9FF20207060700220CA49EC
:1033A00008800120C749087034E0C7480088042815
:1033B00030DDC5480088A8422CD0FF202070607006
:1033C0000220C149088025E0BD480078FF2803D1CC
:1033D0009DF8040055281DD0BA480078012819D15D
:1033E0009DF80400B84909886054B7480088401C1B
:1033F000B54908800846008804280BDD0094009C2D
:10340000608801F032F9001D85B2AF480088A842FB
:1034100000D10CE09DF80400A9490870AB48007881
:10342000401CAA49087009F10109D1459FDB00BF82
:10343000A5480088042823DDA3480088A8421FD19E
:10344000A1480188204601F0FDF802909E480088BE
:10345000401E215C029881420FD12A462146304607
:1034600001F073FF3D80002096490870964908805E
:10347000964908709249087069E76FF0010066E7A5
:10348000012064E710B500246A4890F87A0000B97A
:1034900010BD8FA001F052FD6648B0F8B1107B302E
:1034A000FFF747FB04466348B0F8B100A04202D0E2
:1034B0008FA001F043FDFFF71AFB5E49C1F8B3008E
:1034C00000BFE5E770B504465A4D7B3534B9AFF21D
:1034D0005C4001F033FD4FF0FF3070BD2879401C97
:1034E0002179884204D13E215248793001F0A4FF6D
:1034F0000020F2E73EB50446002524B982A001F081
:103500001DFD681E3EBD20680090606801909DF81A
:103510000400401CC0B28DF80400052001F0A5F89D
:10352000ADF802000921684601F08CF88DF808001A
:1035300009216846FFF7FDFA0546002D03DA294602
:103540003DA001F0FBFC2846DCE710B5394890F8B7
:103550007A00012827D1374890F8790002281DDA2F
:10356000FFF7C5FA3349D1F8B310401AC8281AD961
:10357000FFF7BDFA04462F4890F87930D0F8B32011
:1035800021466CA001F0DAFCFFF77CFF294890F897
:103590007900401C274981F8790004E03E21254844
:1035A000793001F049FF10BD30B59DB004460025CB
:1035B0002CB96AA001F0C2FC681E1DB030BD68467F
:1035C000FFF752FB02208DF8040060798DF80500AA
:1035D0006EA103C9CDE902016FA103C9CDE90401C0
:1035E00070A103C9CDE9080171A103C9CDE90601A4
:1035F000202272A10AA801F0EDFE202278A10DF18F
:10360000520001F0A2FE0020FCE0000067697A523F
:1036100065706F727444617461204572726F7220BC
:103620002C20496C6C6567616C20506172616D0A79
:10363000000000000C0600204552523A20756172CD
:1036400074207772697465206572726F72202564C8
:10365000200A0000580700206368616E6765642CCB
:10366000207265706F727420646174610A000000DA
:10367000C027090060000020496E666F3A2036308E
:103680003053207265706F727420646174610A0037
:1036900067697A50726F746F636F6C4765744F6EB1
:1036A000655061636B6574204572726F72202C20C7
:1036B000496C6C6567616C20506172616D0A000035
:1036C00068000020640000206600002069000020DF
:1036D0005761726E696E673A2074696D656F7574B3
:1036E0002C20726573656E642064617461200A0029
:1036F0004552523A20726573656E6420646174614C
:10370000206572726F720A004552523A2067697AD8
:1037100050726F746F636F6C436F6D6D6F6E41634A
:103720006B206461746120697320656D7074792009
:103730000A0000005761726E696E673A67697A50D5
:10374000726F746F636F6C526573656E64446174FD
:10375000612025642025642025640A0067697A5069
:10376000726F746F636F6C476574446576696365E7
:10377000496E666F204572726F72202C20496C6C06
:103780006567616C20506172616D0A0030303030C5
:1037900030303034000000003030303030303032E3
:1037A0000000000030333033303030300000000093
:1037B00030333031303130300000000038383637A7
:1037C00030373232663462353461383938613638F0
:1037D0003361656139623635656464340000000028
:1037E00038613038613334386162353534623539A7
:1037F00062656330633636636465343164306637DE
:1038000000000000CDF84A00CDF84E009DF85100B0
:103810008DF851009DF8510040F002018DF85110D3
:10382000002000F022FFADF848006F2000F01DFFDF
:10383000ADF802007321684600F004FF8DF87200B5
:1038400073216846FFF775F90546002D04DA29460D
:10385000AFF21C2001F072FB2846AEE6FEB504462E
:103860000E46002524B9FEA001F068FB681EFEBDCF
:103870006846FFF7F9F912208DF8040060798DF899
:103880000500062000F0F1FEADF802008DF808609A
:103890000A21684600F0D6FE8DF809000A21684624
:1038A000FFF747F90546002D04DA2946AFF27820E4
:1038B00001F044FB2846DAE770B5044625462CB9EA
:1038C000F2A001F03BFB4FF0FF3070BDF448A96857
:1038D0000160E9684160298A0181A97C8172A0F2B6
:1038E0007511B1F8750100F0C0FEEE49A1F875013F
:1038F000D1F87D0100F0C6FEEA49C1F87D010E2134
:10390000E84890F8DD20DE308154DE3890F8DD00A4
:10391000401CE44981F8DD00042008700020D4E751
:1039200010B5FFF7E4F8044600BFFFF7E0F8001B0E
:10393000B0F5167FF9D9FFF7DDF810BD10B50446D4
:103940002CB9D9A001F0FAFA4FF0FF3010BD208950
:1039500000F08BFE2081E0480078C0F38000217ADF
:10396000C1F38001884256D0207AC0F3800000283D
:1039700029D0207A00F0010078B10021C94890F8E0
:10398000CA20CB308154CB3890F8CA00401CC549BE
:1039900081F8CA00D1A001F0D1FA207AC0F340002A
:1039A000002838D00121BF4890F8CA20CB3081547C
:1039B000CB3890F8CA00401CBA4981F8CA00CFA0A1
:1039C00001F0BCFA27E0207A00F0010078B1002174
:1039D000B44890F8CA20CB308154CB3890F8CA0054
:1039E000401CB04981F8CA00BCA001F0A7FA207AB7
:1039F000C0F3400078B10221AA4890F8CA20CB3029
:103A00008154CB3890F8CA00401CA64981F8CA00FE
:103A1000C1A001F093FAB0480078C0F3C000217A49
:103A2000C1F3C00188422CD0207AC108AA4800788E
:103A300061F3C300A8490870207AC0F3C00080B1C8
:103A40000321984890F8CA20CB308154CB3890F8A5
:103A5000CA00401C934981F8CA00B6A001F06EFA72
:103A60000FE004218F4890F8CA20CB308154CB3826
:103A700090F8CA00401C8B4981F8CA00B5A001F03B
:103A80005DFA95480078C0F30010217AC1F3001167
:103A900088422CD0207A01098F48007861F3041005
:103AA0008D490870207AC0F3001080B105217D484F
:103AB00090F8CA20CB308154CB3890F8CA00401C13
:103AC000784981F8CA00ABA001F038FA0FE006216E
:103AD000744890F8CA20CB308154CB3890F8CA0093
:103AE000401C704981F8CA00AAA001F027FA7A4860
:103AF0000078C0F34010217AC1F3401188422CD0E5
:103B0000207A41097448007861F3451072490870C1
:103B1000207AC0F3401080B10721624890F8CA2093
:103B2000CB308154CB3890F8CA00401C5D4981F8F5
:103B3000CA00A1A001F002FA0FE00821594890F84C
:103B4000CA20CB308154CB3890F8CA00401C55496C
:103B500081F8CA009FA001F0F1F95F484078C0F3F6
:103B6000C001607AC0F3C00081422CD0607AC108E5
:103B70005948407861F3C30057494870607AC0F3F0
:103B8000C00080B10B21474890F8CA20CB30815447
:103B9000CB3890F8CA00401C424981F8CA0095A071
:103BA00001F0CCF90FE00C213E4890F8CA20CB3050
:103BB0008154CB3890F8CA00401C3A4981F8CA00B9
:103BC00093A001F0BBF944484078C0F30011607A3B
:103BD000C0F3001081422CD0607A01093E48407841
:103BE00061F304103C494870607AC0F3001080B162
:103BF00009212C4890F8CA20CB308154CB3890F85A
:103C0000CA00401C274981F8CA0089A001F096F932
:103C10000FE00A21234890F8CA20CB308154CB38DA
:103C200090F8CA00401C1F4981F8CA0087A001F023
:103C300085F90D211B4890F8CA20CB308154CB3830
:103C400090F8CA00401C174981F8CA00607A00F059
:103C5000070081F87401084690F8741104E100002F
:103C600067697A50726F746F636F6C4572726F72AE
:103C7000436D64204572726F72202C20496C6C6514
:103C800067616C20506172616D0A00004552523AC2
:103C9000204E545020697320656D707479200A009D
:103CA000810700200C06002067697A50726F746FDC
:103CB000636F6C4D6F64756C6553746174757320BC
:103CC0004572726F72202C20496C6C6567616C20A4
:103CD000506172616D0A00006A0000204F6E426FF1
:103CE000617264696E673A20536F66744150206F49
:103CF0007220576562206D6F64650A004F6E426FD7
:103D0000617264696E673A204169724C696E6B201A
:103D10006D6F64650A0000004F6E426F61726469E6
:103D20006E673A2053746174696F6E206D6F6465BD
:103D30000A00000057694669207374617475733A0C
:103D400020696E2062696E64696E67206D6F6465BC
:103D50000A00000057694669207374617475733AEC
:103D6000206F75742062696E64696E67206D6F6480
:103D7000650A000057694669207374617475733A67
:103D800020636F6E6E656374656420726F75746511
:103D9000720A000057694669207374617475733A3A
:103DA00020646973636F6E6E656374656420726FFF
:103DB000757465720A000000576946692073746162
:103DC0007475733A20636F6E6E6563746564206DFD
:103DD000326D0A0057694669207374617475733ACD
:103DE00020646973636F6E6E6563746564206D3201
:103DF0006D0A000057694669207374617475733ADF
:103E00002061707020636F6E6E6563740A0000003D
:103E100057694669207374617475733A206E6F2018
:103E200061707020636F6E6E6563740A000000003D
:103E300057694669207374617475733A20696E20FE
:103E400074657374206D6F64650A00005769466974
:103E5000207374617475733A206F75742074657380
:103E600074206D6F64650A00F0A001F067F802200D
:103E7000F2490870002069E510B56C20F04908602F
:103E8000F048C860084600F04FFF18B9EEA001F0F6
:103E900055F802E0F1A001F051F84FF4E171E74864
:103EA00001F0CAFA10BD30B587B005460024052DD3
:103EB0007ED2DFE805F003316193C10001A8FEF76F
:103EC000D3FE0B208DF80800DC4890F87110D0F874
:103ED0007100401CD94AC2F87100C8B28DF80900BF
:103EE000052000F0C2FBADF80600092101A800F092
:103EF000A9FB8DF80C00092101A8FEF71AFE044663
:103F0000002C04DA2146AFF6D00001F017F80921A1
:103F100001A8FEF7BAFEC1E004A8FEF7A5FE09203D
:103F20008DF81400C54890F87110D0F87100401C4D
:103F3000C24AC2F87100C8B28DF815008DF8185049
:103F4000062000F092FBADF812000A2104A800F050
:103F500079FB8DF819000A2104A8FEF7EAFD044652
:103F6000002C04DA2146AFF6301000F0E7FF0A21FA
:103F700004A8FEF78AFE91E004A8FEF775FE09206A
:103F80008DF81400AD4890F87110D0F87100401C05
:103F9000AA4AC2F87100C8B28DF815008DF8185001
:103FA000062000F062FBADF812000A2104A800E030
:103FB00070E000F047FB8DF819000A2104A8FEF715
:103FC000B8FD0446002C04DA2146AFF6941000F048
:103FD000B5FF0A2104A8FEF758FE5FE001A8FEF72E
:103FE00043FE13208DF80800944890F87110D0F823
:103FF0007100401C914AC2F87100C8B28DF80900E6
:10400000052000F032FBADF80600092101A800F000
:1040100019FB8DF80C00092101A8FEF78AFD044662
:10402000002C04DA2146AFF6F01000F087FF0921DA
:1040300001A8FEF72AFE31E001A8FEF715FE1520C3
:104040008DF808007D4890F87110D0F87100401C80
:104050007A4AC2F87100C8B28DF80900052000F054
:1040600004FBADF80600092101A800F0EBFA8DF879
:104070000C00092101A8FEF75CFD0446002C04DABF
:104080002146AFF64C2000F059FF092101A8FEF7A8
:10409000FCFD03E076A000F051FF00BF00BF20460A
:1040A00007B030BD3EB500246846FEF7DDFD1720A1
:1040B0008DF80400614890F87110D0F87100401C30
:1040C0005E4AC2F87100C8B28DF80500052000F004
:1040D000CCFAADF802000921684600F0B3FA8DF879
:1040E000080009216846FEF724FD0446002C03DA87
:1040F000214665A000F022FF09216846FEF7C5FDB4
:104100003EBD3EB500246846FEF7AEFD21208DF889
:1041100004004A4890F87110D0F87100401C474ADA
:10412000C2F87100C8B28DF8050000208DF80800B3
:10413000062000F09AFAADF802000A21684600F065
:1041400081FA8DF809000A216846FEF7F2FC044660
:10415000002C03DA21464CA000F0F0FE0A2168464C
:10416000FEF793FD3EBD70B5044625462CB94EA022
:1041700000F0E4FE4FF0FF3070BD412205F1080170
:104180004D4801F0E2F80F212C4890F8F020F13072
:104190008154F13890F8F000401C284981F8F00073
:1041A000052008700020E7E72DE9F0419EB00546A4
:1041B000002600200290019000248046002735B997
:1041C0003EA000F0BBFE601E1EB0BDE8F081FFF710
:1041D000BCF902AA1949491C1948FFF7A0F806467C
:1041E000002E21D13FA000F0A9FE144C641C2079C0
:1041F0000D281AD00EDC07287ED006DC01287CD0E2
:1042000003287BD006287AD1B0E00A2878D00C2881
:10421000F9D1ADE0162874D077DC0F2873D01128BF
:1042200072D01428EFD1B2E0D5E098E05253534950
:10423000206973202564200A000000000C0600207D
:10424000CE070020DE07002072624372656174654C
:104250002053756363657373200A000072624372B2
:1042600065617465204661696C64200A0000000085
:104270004552523A204366674D6F646520657272FD
:104280006F72210A000000004552525B4E54505D8F
:104290003A20756172742077726974652065727254
:1042A0006F72202564200A004E54502069732065E7
:1042B0006D707479200A00008D07002047697A77B5
:1042C00069747348616E646C65204572726F722008
:1042D0002C20496C6C6567616C20506172616D0ABD
:1042E00000000000476574204F6E65205061636BCD
:1042F0006574210A000000002DE00BE00EE061E093
:1043000035E036E001E038E040E0182846D02228C9
:1043100058D14DE02046FFF747F95BE0E279A179FB
:1043200090A000F00BFE01A8009007F10900BDF875
:1043300008301A1A8F48C11903AB4046FEF779FDC1
:1043400040B9E37903A92046019AFEF7E0FD8AA06F
:1043500000F0F4FD3EE02046FFF7CCF83AE02046BE
:10436000FFF7C8F82046FFF7E9FA33E000BF00BFC7
:1043700000BF2046FFF7A6F82CE02046FFF7BAF86A
:1043800080A000F0DBFDFFF7CBFA23E022E020461F
:10439000FFF798F880A000F0D1FD1BE02046FFF762
:1043A00091F82046FFF788FA83A000F0C7FD11E0DE
:1043B0002046FFF787F82046FFF7D5FE84A000F0DF
:1043C000BDFD07E002212046FFF748FA87A000F074
:1043D000B5FD00BF0EE016F1020F0BD1654C083C95
:1043E00001212046FFF73AFA86A000F0A7FD6FF002
:1043F0000100E9E65F4809380078062854D2DFE872
:1044000000F053031425314200205A49093908703D
:10441000282201F59271A1F16D00FEF7F7FA132140
:104420005448AE3001F008F83FE000205149093906
:104430000870012201F5BA71A1F1AA00FEF7E6FAAF
:1044400013214C48C13000F0F7FF2EE0002049490D
:10445000093908700846D0F86D203731B730FEF7BB
:10446000D5FA22E000204349093908700C2201F2F4
:104470007511A1F19800FEF7C9FA13213D48D43017
:1044800000F0DAFF11E000203A49093908704122B2
:1044900001F28111A1F19100FEF7B8FA41213548EE
:1044A000E73000F0C9FF00E000BF00BF2846FEF77C
:1044B000F6FE002088E62DE9F0418EB006460F4654
:1044C0004FF000086C46B81D85B23EB953A000F00D
:1044D00035FD4FF0FF300EB0BDE8F081FF2004F84D
:1044E000010B04F8010B281204F8010B04F8015B1E
:1044F000052004F8010B1F48093890F87110D0F816
:104500007100401C1B4A093AC2F8710004F8011BF3
:10451000002004F8010B04F8010B062004F8010B3D
:104520003A4631460DF1090000F00FFF291D68469B
:1045300000F088F80146E81C0DF80010291D6846B7
:10454000FEF7F7FA8046B8F1000F04DA4146AFF6FD
:10455000187000F0F3FC291D6846FEF796FB00205A
:10456000B9E70000666C6167202578202578200A6D
:10457000000000001506002041636B446174612057
:104580003A200A007265706F72743A4D435520727A
:1045900065626F6F74210A0041636B2050524F4473
:1045A000554354494F4E5F4D4F44452073756363E7
:1045B000657373200A00000041636B204745545F18
:1045C0005554542073756363657373200A000000AB
:1045D00041636B204745545F4D6F64756C65207374
:1045E000756363657373200A000000004552523AF8
:1045F00020636D6420636F6465206572726F722141
:104600000A0000004552523A20636865636B2073CC
:10461000756D206572726F72210A00005B455252FF
:104620005D2067697A776974735061737374687217
:104630006F75676844617461204572726F72200AF9
:104640000000000010B502460024002302B109B9A1
:10465000002010BD022303E0D05C2044C4B25B1CE8
:10466000481E9842F8D82046F3E701B581B00020F3
:104670000090694601AA5078087010784870BDF81B
:1046800000000CBD0146080601F47F4240EA02200A
:1046900001F47F0240EA122040EA1160704710B531
:1046A00002460024302A05DB392A03DCA2F130005F
:1046B000C3B20EE0412A05DB462A03DCA2F1370033
:1046C000C3B206E0612A04DB662A02DCA2F15700CD
:1046D000C3B2302905DB392903DCA1F13000C4B2B3
:1046E0000EE0412905DB462903DCA1F13700C4B205
:1046F00006E0612904DB662902DCA1F15700C4B29F
:1047000004EB0310C0B210BD70B5044600250026AE
:10471000204600F0FBFD06460CB9681E70BD002562
:1047200005E0605D302801D00020F7E76D1CB54240
:10473000F7D30120F2E72DE9F043034600BF00253F
:10474000002400260027012901D002290DD1A3F160
:10475000010C4FF06408BCFBF8F4BCFBF8F908FB53
:1047600019C501F10C06174609E04FF0640CB3FBC4
:10477000FCF4B3FBFCF80CFB18350E46174606F1AB
:10478000010C4FF01A080CFB08FC4FF00A08BCFBA8
:10479000F8FC05EB950808EB94084FF0020909FBBB
:1047A0001488C444BC44ACF10100002806DB4FF07F
:1047B000070C90FBFCF80CFB180C07E04FF0070C03
:1047C00090FBFCF80CFB180C0CF1070C6046BDE8E4
:1047D000F08301460A46C81701EB90708010A1EBE8
:1047E000800070B9642091FBF0F300FB131030B926
:1047F0004FF4C87091FBF0F300FB131008B90120CF
:1048000070470020FCE710B504462046FFF7E1FFA3
:1048100010B14FF4B77010BD40F26D10FBE72DE9F9
:10482000F04190B080460E4640F2B27530226949A0
:1048300001A800F0CFFD344604F5E14400BF11E0CB
:104840002846FFF7E0FF074640F2A3207843B4EB89
:10485000C01F06D340F2A3207843A4EBC0146D1C04
:1048600000E001E0002CEBD100BFA8B2ADF83400AD
:10487000002518E0BDF83400FFF7ABFF08B11D209C
:10488000029001A850F8250040F2A3214843B4EB60
:10489000C01F07D301A850F825004843A4EBC0145B
:1048A0006D1C00E001E0002CE4D100BF1C20029050
:1048B000681CC0B28DF83600012506E046488442E7
:1048C00002D3241A6D1C00E001E0002CF6D100BFD9
:1048D000E8B28DF837004FF46160B4FBF0F0C0B27D
:1048E0008DF838004FF46160B4FBF0F100FB11402B
:1048F0003C21B0FBF1F0C0B28DF839003C20B4FB94
:10490000F0F100FB11408DF83A00CDF83B600D98B6
:10491000C8F800000E98C8F80400BDF83C00A8F8DC
:1049200008009DF83E0088F80A0010B0BDE8F0814C
:104930002DE9F05F80460E46914600241CE016F8F3
:1049400014A06000401C16F800B0504600F0D4FAE5
:104950003038C5B2092D01DDE81FC5B2584600F058
:10496000CBFA3038C7B2092F01DDF81FC7B207EB09
:10497000051008F80400641C4C45E0DBBDE8F09F1E
:10498000F0B5034600201EE00E5CF71706EB177724
:104990003F1107F130050E5CF71706EB17773F1153
:1049A000A6EB07173037FCB2392D01DDEE1DF5B24D
:1049B000392C01DDE61DF4B203F81050012606EB98
:1049C00040069C55401C9042DEDB002603F8126036
:1049D000F0BD0000B86F00088051010030B50246FC
:1049E0000B460021002400250AB9481E30BD0021D5
:1049F00008E0545C581A401E155C5554581A401E65
:104A00001454491CB1EB530FF3D30020EEE710B55B
:104A100003460020541AB4FBF3F010BD10B5034652
:104A2000002002FB031010BD2DE9F04704460E469E
:104A3000154600273146284602F044FA81462146B1
:104A400002F07EF8804602F03DF907463846BDE8A0
:104A5000F0872DE9F04704460E4615460027284604
:104A600002F050F98146214602F060F98046314655
:104A700002F004F807463846BDE8F087024612B156
:104A800002F0070028B9082901D80020704701204A
:104A9000FCE702F00700C0F10800884201D30020C3
:104AA000F4E70120F2E72DE9F04705468846144671
:104AB0001E464FF00009CA460027002314B9581EAD
:104AC000BDE8F087EB0841462846FFF7D7FF0746C9
:104AD0003FB9E05C05F0070106FA01F10843E05434
:104AE0001DE0012F1BD1F0B205F00701C1F1080153
:104AF00040FA01F905F00700C0F10801FF20084164
:104B000000EA060A581C205C40EA0900591C60545F
:104B1000E05C05F007010AFA01F10843E0540020C7
:104B2000CEE72DE9F04F8FB004460F4690461D4664
:104B30000026B246B146B34600200E90B8F1000FF1
:104B400000D025B94FF0FF300FB0BDE8F08F4FEA2D
:104B5000D4092A46414601A800F0F7FB012D09D9E6
:104B6000294601A8FFF73AFFB0F1FF3F02D14FF00D
:104B7000FF30E9E739462046FFF780FF8246BAF169
:104B8000000F0CD101A810F8090004F0070108413A
:104B9000C7F10802FF2111410840064321E0BAF1A4
:104BA000010F1ED101A909F10100085C04F0070101
:104BB000C1F10801791AC1F10802FF21114100EA8F
:104BC000010B01A810F8090004F0070108410E903C
:104BD00004F00700C0F108010BFA01F006430E983B
:104BE00006433046B0E72DE9F04F8FB005460C463E
:104BF00016469946189F4FF0000AD34600200E90A3
:104C00008046B9F1000F00D027B94FF0FF300FB048
:104C1000BDE8F08F3A46494601A800F096FB012F07
:104C200009D9394601A8FFF7D9FEB0F1FF3F02D1FB
:104C30004FF0FF30EBE731462046FFF71FFF82467B
:104C4000BAF1000F0CD101A8405D04F00701084142
:104C5000C6F10802FF211141084040EA080821E09E
:104C6000BAF1010F1ED101A9681C085C04F007010C
:104C7000C1F10801711AC1F10802FF21114100EAD6
:104C8000010B01A8405D04F0070108410E9004F0FB
:104C90000700C0F108010BFA01F040EA08080E987D
:104CA00048EA00084046B2E72DE9F04704460D46C1
:104CB0001746089E4FF00009CA46C8461BB94FF078
:104CC000FF30BDE8F08739462846FFF7D7FE80461B
:104CD000B8F1000F07D1185D05F0070106FA01F1E0
:104CE000084318551EE0B8F1010F1BD1F0B205F0D2
:104CF0000701C1F1080140FA01F905F00700C0F110
:104D00000801FF20084100EA060A601C185C40EA1E
:104D10000900611C5854185D05F007010AFA01F1F9
:104D2000084318550020CCE7014611B94FF0FF3079
:104D30007047C8684860C86888600020F8E7014686
:104D400011B94FF0FF3070470020C860486088609C
:104D5000086000BFF7E7014611B94FF0FF30704718
:104D60000868FCE700B5024612B94FF0FF3000BDFD
:104D700050689168884201D10020F8E75068916836
:104D8000884203D290685168401AF0E71046FFF756
:104D9000E2FF51689368C91A401AE8E730B5044643
:104DA00014B94FF0FF3030BD2046FFF7D4FF054661
:104DB0002046FFF7D7FF281AF5E72DE9F041044612
:104DC0000F461646002514B9681EBDE8F08117B9D4
:104DD0004FF0FF30F9E76068A168884214D220469E
:104DE000FFF7C0FFB04201D9304602E02046FFF78E
:104DF000B9FF054661682A46384600F0A6FA6068A1
:104E0000284460602846E0E72046FFF7A4FF616879
:104E1000E268891A401AB0420AD9354661682A46C2
:104E2000384600F092FA6068284460602846CCE773
:104E30002046FFF790FF6168E268891A451A6168A9
:104E40002A46384600F081FAE0686060721B7919E2
:104E50002046FFF7B2FF05442846B6E72DE9F041AA
:104E600004460F461546002604B11FB94FF0FF3027
:104E7000BDE8F0812046FFF791FFA84202D86FF00D
:104E80000100F5E76068A16888422AD82046FFF74C
:104E900062FFA168E268891A461AB54213D8A06871
:104EA0002A46394600F051FAA0682844A0602046FE
:104EB000FFF751FFE1680844A168884201D1E0682A
:104EC000A0602846D4E7A0683246394600F03DFA93
:104ED000E068A060AA1BB9192046FFF7BFFF304465
:104EE000C6E7A0682A46394600F02FFAA068284491
:104EF000A0602846BCE7704710B5044600F0C2FA2F
:104F00000068005D000704D5DF2C02D0A4F120006A
:104F100010BD204610BD00001CB50C46064B7B445E
:104F200069460090204600F03AFB0446002069469E
:104F300000F048FB20461CBDA30600000FB4044946
:104F400010B503AA029800F059FB10BC5DF814FBE1
:104F50002C0000200FB41CB5084B06AA7B44694600
:104F60000090059800F01BFB04460020694600F005
:104F700029FB20461CBC5DF814FB00006506000000
:104F800070B5044685690068C10601D5302600E089
:104F90002026C00707D070BDD4E9012130469047D4
:104FA000206A401C20626D1EF6D570BD70B50446A7
:104FB00085690078C00707D170BDD4E901212020A0
:104FC0009047206A401C20626D1EF6D570BD70B5FA
:104FD0000C460546012A05D02878800600D5EA69E6
:104FE000002302E0012305E05B1C934202D2E05C57
:104FF0000028F9D1A869E618C01AA861286A1844DF
:1050000028622846FFF7BCFF04E0D5E9012114F827
:10501000010B9047B442F8D32846FFF7C7FF70BD95
:105020002DE9F0410646002410687529314616A581
:1050300010D000F02FFA002802DA404213A507E052
:1050400031688A0701D512A502E0490704D511A5E8
:10505000012401E000F027FA00210A2206F12407CA
:1050600009E0B0FBF2FCB0FBF2F302FB1C003030B5
:1050700078541846491C0028F3D123462A46304666
:10508000BDE8F04100F018BA000000002D0000005B
:105090002B00000020000000F0B40D460188090537
:1050A00002D5214C7C4402E01F4C7C440E3400218C
:1050B00000F1240608E002F00F071209E75D42EA5A
:1050C00003721B097754491C52EA0307F3D1027893
:1050D0000023120704D5702D06D009B10223113424
:1050E0002246F0BC00F0E8B901231034F8E770B5AF
:1050F00004460D462146106800F0D5F902462946BF
:105100002046BDE870400023C6E7D21D22F0070309
:10511000D3E90023C0E70368126843F0200303606B
:105120000823C3610023B7E7401F00002DE9F05FAB
:10513000894604464FF0000ADFF874B1FB44C0F81A
:1051400020A02046E1688847002874D0252806D092
:10515000D4E901219047206A401C2062F1E7002633
:105160005F462046E16888472028054607DB312D49
:1051700005D2781910F8200C08B10643F1E7B00702
:1051800001D526F00406C4F81CA00027C4F818A016
:105190002A2D09D0284601F03EFC38B304EB8708DD
:1051A000303DC8F8185019E059F8041B204604EBAC
:1051B00087029161E1688847012F054618D1E069AF
:1051C000002820DA26F020061DE0D8F8180000EBB1
:1051D000800005EB40003038C8F818002046E16830
:1051E0008847054601F017FC0028EED1012F0AD0B0
:1051F0002E2D08D12046E16888477F1C0546022FE6
:1052000046F02006C4DBA069002803DA404246F0DD
:105210000106A061F00701D026F010066C2D0BD01E
:10522000682D09D04C2D39D06A2D35D0742D35D04C
:105230007A2D33D016E038E0E1682F4620468847C3
:10524000B842054609D16C2F26D04FF48060E16842
:10525000064320468847054604E06C2F1AD04FF4D9
:10526000807006430DB3A5F14100192802D82035FE
:1052700046F400664A462946204626604E46FAF71E
:1052800091FF80B101280BD0F61D26F0070000F138
:10529000080956E74020E4E78020D8E70020D6E759
:1052A00006F104094DE7284652E7206ABDE8F09F61
:1052B000D01E000040EA010310B59B070FD1042A5D
:1052C0000DD310C808C9121F9C42F8D020BA19BAD1
:1052D000884201D9012010BD4FF0FF3010BD1AB136
:1052E000D30703D0521C07E0002010BD10F8013B8B
:1052F00011F8014B1B1B07D110F8013B11F8014BB2
:105300001B1B01D1921EF1D1184610BD10B5431CD4
:1053100002E010F8011B71B18107FAD14FF00132A0
:1053200002C88C1A8C4314EAC211F9D0C01A0A06BA
:1053300003D0C01E10BDC01A10BD0A0401D0801ECB
:1053400010BD0902FCD0401E10BD032A40F230807F
:1053500010F0030C00F0158011F8013BBCF1020FB6
:10536000624498BF11F801CB00F8013B38BF11F837
:10537000013BA2F1040298BF00F801CB38BF00F84E
:10538000013B11F0030300F02580083AC0F00880CB
:1053900051F8043B083A51F804CBA0E80810F5E7AF
:1053A000121D5CBF51F8043B40F8043BAFF3008092
:1053B000D20724BF11F8013B11F801CB48BF11F807
:1053C000012B24BF00F8013B00F801CB48BF00F8D7
:1053D000012B704710B5203AC0F00B80B1E818508F
:1053E000203AA0E81850B1E81850A0E81850BFF4CF
:1053F000F5AF5FEA027C24BFB1E81850A0E818506E
:1054000044BF18C918C0BDE810405FEA827C24BFC1
:1054100051F8043B40F8043B08BF7047D20728BF4F
:1054200031F8023B48BF11F8012B28BF20F8023B9E
:1054300048BF00F8012B70474FF000020429C0F06C
:10544000128010F0030C00F0C181CCF1040CBCF10F
:10545000020F18BF00F8012BA8BF20F8022BA1EB08
:105460000C0100F0B3B95FEAC17C24BF00F8012B46
:1054700000F8012B48BF00F8012B704770477047B8
:105480007047704710B500F0C7F9001D10BD00BF90
:105490009515000009684A0501D540B27047C90555
:1054A000FCD500B2704709684A0501D5C0B2704703
:1054B000C905FCD580B270472DE9F0470D469946E5
:1054C0009246044600F124080168880604D5E06984
:1054D00021F01001216000E00120A84201DD471BFE
:1054E00000E00027A1697A1902EB0900081AA061FF
:1054F0002078C00602D42046FFF742FD002608E0CF
:10550000D4E901211AF806009047206A401C761C55
:1055100020624E45F4DB2078C0060AD52046FFF70E
:105520002FFD06E0D4E9012130209047206A401C7D
:105530002062381EA7F10107F4DC07E0D4E901215D
:1055400018F805009047206A401C2062281EA5F12B
:105550000105F3DC2046FFF729FD2078000602D57F
:105560000220BDE8F0870120FBE711680268006AAD
:10557000530501D508700AE0D30501D5088006E07F
:10558000130603D5C217C1E9000200E0086001203C
:105590007047000001694A1C02610878704700B535
:1055A0008FB0CDE901310021059105497944CDE95C
:1055B000031011466846FFF7B9FD0FB000BD0000AB
:1055C000E5FFFFFF0A6802F8010B0A60704710B59B
:1055D000436913B1AFF3008001E0FFF7F8FC01204D
:1055E00010BD127800F124010A7000224A700122D5
:1055F000EDE711684FF0FF32E9E70000074B70B5A7
:105600000D467B44FFF7CBFF0446284600F0EEFC36
:1056100010B14FF0FF3070BD204670BD07B5FFFFE1
:105620002DE9FF5F15468A460446DFF8AC80F84452
:105630000027D8E900103E46CDE9001010E03AF806
:1056400016106A4602A800F0D5FC411C07D021784C
:10565000890603D5E269391891420DD80744761CB2
:105660002078800602D5E069B84205DDAE42E6DB6F
:105670003AF816000028E2D1A069C01BA0612046BC
:10568000FFF77EFCD8E90010CDE90010002017E0FC
:105690003AF818106A4602A800F0ACFCB0F1FF3FDF
:1056A00081460BD000250DF1080B05E0D4E901215E
:1056B0001BF8050090476D1C4D45F7D308F101001C
:1056C000B0428046E4DB206A384420622046FFF77F
:1056D0006DFCBDE8FF9F0000F21900002DE9F041CC
:1056E0008046D21D22F007020025D2E90002F529EA
:1056F00015A614D0011E72F1000106DA0023D0EBCA
:10570000030063EB020211A608E0D8F800108B0733
:1057100001D50FA602E0490701D50EA601251146C5
:10572000002408F1240704E000F07AF830323A55FA
:10573000641C50EA0102F7D12B463246214640460E
:10574000BDE8F041FFF7B8BE000000002D000000EA
:105750002B0000002000000030B4002100F12404E0
:1057600008E002F00705D208303542EA4372DB0850
:105770006554491C52EA0305F3D10468002310A2C2
:10578000250708D504F020040C4304D0C469012384
:105790000CA2641EC46130BCFFF78EBE10B5044677
:1057A00021461068FFF77FFE02462046BDE8104004
:1057B0000023D1E7D21D22F00701D1E90023CBE776
:1057C00000000000300000004FF0000200B513465A
:1057D00094469646203922BFA0E80C50A0E80C5011
:1057E000B1F12001BFF4F7AF090728BFA0E80C50C2
:1057F00048BF0CC05DF804EB890028BF40F8042BBB
:1058000008BF704748BF20F8022B11F0804F18BF27
:1058100000F8012B70470000004870476C0800201A
:1058200030B5B0F10A024FEA900E71F100034EEA72
:10583000817EB0EB0E0061EB91014FEA101E4EEA43
:10584000017E10EB0E0041EB11114FEA102E4EEAD3
:10585000016E10EB0E0041EB11214FEA104E4EEAA3
:10586000014E10EB0E0041EB1141401841F10001D7
:105870004FEAD00040EA41704FEAD10110EB8005B9
:105880004FEA810444EA907444EB01046D1944EB3F
:105890000404521BA3414FF0000348BF0A3200D555
:1058A00030BD401C41F1000130BD70472DE9FF4F74
:1058B0000C461E464FF0FF378BB0D2E90001DDF8F1
:1058C00060800A908A46C1F30A5505B93D46002119
:1058D00008464FF00000BAF1000F00F4400005DA6E
:1058E00000EB80004FF4400101EA50004FEA90596C
:1058F000B9F1010F00DDB9460A9850EA4A000ED00E
:1059000044F61050A5F2FF3545432F14B8F1000FAF
:105910001ED07542291E1EDDC9F100021CE0B8F13F
:10592000010F4FF0000001D0302103E0F24305E009
:105930002154401CB042FBDB3046002200212154A0
:105940000B99C1F80880C1E900200FB0BDE8F08FC5
:10595000BD1B6D1CDEE74A4600DA694206A800F06E
:10596000D3FB06AB93E8070003AB83E80700504680
:105970000A9900F081FC8DE80700A0F500501F385F
:1059800000900398002D09DD42F21F014A460844A9
:1059900003A90390684600F0E0FE08E0A0F500507F
:1059A0004A461F3803A90390684600F0EAFE8DE8D6
:1059B00007000004000C03D04FF0FF30410800E066
:1059C0001046B8F1000F03D00022009215461EE0E9
:1059D000751E05D4FFF724FF303262556D1EF9D5D0
:1059E000B3460122084302D000227F1C04E0207845
:1059F000302801D100227F1E002A099786D01DE0A1
:105A0000112D07DAFFF70CFF303262556D1C50EA9A
:105A10000102F5D1084302D00098C8B10EE0002180
:105A2000681E05E0235C625C63542254401E491CDE
:105A30008142F7DBAB46A81B401E0990002004F80A
:105A40000B000B98099AC0F80880C0E9002B7CE78E
:105A500011264FF0000859E72DE9F04F884604461B
:105A6000D21D22F0070191B0D1E90001CDE90A0170
:105A700000F0BDFF02460B98C00F01D02D2007E0BB
:105A80002068810701D52B2002E0202101EAC00017
:105A9000032A099001D0072A05DB03464146204628
:105AA00000F0F2FA0BE12078800601D5E06900E011
:105AB0000620B8F1650F814606D0B8F1660F18D000
:105AC000B8F1670F70D131E00020B9F1110F0090EB
:105AD00001DB112301E009F101030AAA01A90CA8C5
